:02000002D0002C
:1040000000400D00145E0D00000006000C000501CC
:084010000401DB0700000000C1
:04401800645B0D00D8
:10401C0009480A49884208B505D0094A824202D0AB
:10402C00121A01F031FD0748074A0021121A01F05B
:10403C0039FD014808BD00BF8CE50320845D0D00EF
:10404C00F4E50320F4E50320F0E7032070B5074EF8
:10405C00074C00F013FEA41BA4080025A54200D1B8
:10406C0070BD56F8043B98470135F7E7505D0D00DD
:10407C00745D0D0000F015B808B500F06FF8BDE8E0
:10408C00084000F0BDBD00F0BBBA00F0B9BA00F0BA
:10409C00BFBA0078B0FA80F0400970470123037072
:1040AC00704708B501F086F94FF4E13101F076F96B
:1040BC00BDE808400021062001F078BC70B58AB03C
:1040CC00054600F02FFD1F4A1F4E059200230446A3
:1040DC00402205A8CDE908238DF81830079601F089
:1040EC00A1FB0522194905A801F012FC294601F093
:1040FC00A5FB0922164905A801F00AFC214601F08E
:10410C009DFB05A801F078FB124B13491B788DF829
:10411C00003032463C2303A800F008FF049C7CB11D
:10412C006368013B63605BB9236820469B689847D2
:10413C00A368013BA3601BB923682046DB68984742
:10414C000AB070BD3C5D0D0004E60320785B0D00E9
:10415C007E5B0D00F8E50320885B0D002DE9F04136
:10416C00012188B0062001F032FC334D286000F0AC
:10417C009BF80121074606202E6801F028FC2F4BE6
:10418C0018602B680446002B4FD000F08DF84FF4CC
:10419C007A78B4FBF8F2D419001BB6FBF8F641F2AE
:1041AC008833B51E30446B43043893FBF0F401F0B4
:1041BC0001F92349064604A800F06DFB0A2205EB21
:1041CC008501684600F08DFB694604A800F0B3FB3E
:1041DC001C4900F0BCFB0168304600F035FC684619
:1041EC0000F00EFB04A800F00BFB01F0E3F81649FD
:1041FC00054604A800F04FFB0A222146684600F051
:10420C0070FB694604A800F096FB0E4900F09FFB7A
:10421C000168284600F02BFC684600F0F1FA04A86F
:10422C0000F0EEFA2046FFF749FF41F2883000F02B
:10423C0093FC08B0BDE8F081FCE5032000E6032008
:10424C00A75B0D009A5B0D009D5B0D00014B0122DD
:10425C001A707047F8E5032008B5024B1B689B6881
:10426C00019308BD6802030008B5024B1B68DB68AC
:10427C00019308BD6802030008B5024B1B689B68DC
:10428C00019308BD2C02030008B5024B1B68DB6CC4
:10429C00019308BD2C02030008B5024B1B685B6838
:1042AC00019308BD1802030008B5024B1B685B693B
:1042BC00019308BD1802030008B5024B1B689B6DE7
:1042CC00019308BD1802030008B5024B1B685B6E16
:1042DC00019308BD1802030008B5024B1B685B6C08
:1042EC00019308BD4802030008B5024B1B689B6C88
:1042FC00019308BD4802030008B5024B1B685B69BB
:10430C00019308BD6402030008B5024B1B681B68CF
:10431C00019308BD3C02030008B5024B1B68DB6827
:10432C00019308BD3C02030008B5024B1B681B69D6
:10433C00019308BD3C02030008B5024B1B685B6986
:10434C00019308BD3C02030008B5024B1B689B6936
:10435C00019308BD3C02030008B5024B1B68DB69E6
:10436C00019308BD3C02030008B5024B1B681B6A95
:10437C00019308BD3C02030008B5024B1B689B6A05
:10438C00019308BD3C02030008B5024B1B681B6A75
:10439C00019308BD2802030008B5024B1B685B6A39
:1043AC00019308BD2802030008B5024B1B689B6AE9
:1043BC00019308BD2802030008B5024B1B68DB6A99
:1043CC00019308BD2802030008B5024B1B681B6B48
:1043DC00019308BD2802030008B5024B1B685B6BF8
:1043EC00019308BD2802030008B5024B1B681B6C27
:1043FC00019308BD2802030008B5024B1B68DB695A
:10440C00019308BD3002030008B5024B1B681B6A00
:10441C00019308BD3002030008B5024B1B681B68F2
:10442C00019308BD4C02030008B5024B1B685B6886
:10443C00019308BD4C02030008B5024B1B681B69B5
:10444C00019308BD4C02030008B5024B1B685B6965
:10445C00019308BD4C02030008B5024B1B689B6915
:10446C00019308BD4C02030008B5024B1B68DB69C5
:10447C00019308BD4C02030008B5024B1B681B6A74
:10448C00019308BD4C02030008B5024B1B681B6866
:10449C00019308BD2002030008B5024B1B685B6842
:1044AC00019308BD2002030008B5024B1B685B6931
:1044BC00019308BD2002030008B5024B1B68DB6C9E
:1044CC00019308BD2002030008B5024B1B685B6D0D
:1044DC00019308BD2002030008B5024B1B689B6DBD
:1044EC00019308BD2002030008B5034B1B68D3F8E9
:1044FC008830019308BD00002002030008B5034B6F
:10450C001B68D3F89430019308BD0000200203000F
:10451C0008B5024B1B685B68019308BD40020300A1
:10452C0008B5024B1B689B68019308BD4002030051
:10453C0008B5024B1B68DB68019308BD4002030001
:10454C0008B5024B1B681B69019308BD40020300B0
:10455C0008B5024B1B685B69019308BD4002030060
:10456C0008B5024B1B689B69019308BD4002030010
:10457C0008B5024B1B68DB69019308BD40020300C0
:10458C0008B5024B1B681B6A019308BD400203006F
:10459C0008B5024B1B681B6B019308BD400203005E
:1045AC0008B5024B1B685B6B019308BD400203000E
:1045BC0008B5024B1B689B68019308BD44020300BD
:1045CC0008B5024B1B685B69019308BD44020300EC
:1045DC0008B5024B1B681B6A019308BD440203001B
:1045EC0008B5024B1B681B6B019308BD440203000A
:1045FC0008B5024B1B68DB6B019308BD440203003A
:10460C0008B5024B1B681B68019308BD1C02030014
:10461C0008B5024B1B685B68019308BD1C020300C4
:10462C0008B5024B1B689B68019308BD1C02030074
:10463C0008B5024B1B685B6A019308BD1C020300A2
:10464C0008B5024B1B68DB6A019308BD1C02030012
:10465C0008B5024B1B681B6B019308BD1C020300C1
:10466C0008B5024B1B685B6C019308BD1C02030070
:10467C00002240681146FFF783BF002240681146B4
:10468C00FFF78EBF40680022FFF782BF4068002210
:10469C0081F00101FFF76CBF002340681A461946F0
:1046AC00FFF75EBF002340681A461946FFF750BF5C
:1046BC00002240681146FFF743BF002240681146B4
:1046CC00FFF72EBF406800220221FFF731BF002305
:1046DC0040681A46FFF71CBF024B03225A60024A7D
:1046EC001A60704744E60320BC5B0D0010B504460D
:1046FC0008462170FFF780FE00236360204610BD42
:10470C0010B50446006818B1FFF782FF0023236040
:10471C0010BD10B50446FFF7F3FF204610BD000096
:10472C0010B5094B094C022200201A60084B20607E
:10473C00A080A071A360FFF7AFFE2046054A064992
:10474C00BDE8104001F086B958E603204CE6032082
:10475C000000FFFFF4E503201F470D0010B50446D1
:10476C0001F0F1F9013823182046834206D902786A
:10477C00197800F8011B03F80129F6E710BD70B594
:10478C000C46911E2229054622D820466DB1B5FB58
:10479C00F2F602FB1655E9B2092D94BF30315731B0
:1047AC00C9B200F8011B3546F0E70246234430211C
:1047BC00934202D902F8011BFAE71A1A834238BF56
:1047CC000022002383542046FFF7C8FF204670BD0B
:1047DC000020FCE738B5031E0C4615460EDAB3F183
:1047EC00004F4FF02D0214BF5842184601230A7097
:1047FC002A461944FFF7C3FF204638BD0123F9E7C9
:10480C0010B504460068FFF703FF204610BD10B535
:10481C000446006808B1FFF7FBFE0023C4E901332E
:10482C00236010BD38B504460D4600680131FFF712
:10483C00F7FE10B1C4E90005012038BD10B50368BE
:10484C00044623B143688B4201D3012010BD20469E
:10485C00FFF7E8FF0028F9D0A368002BF5D12268F8
:10486C001370F2E737B50D46114601920446FFF777
:10487C00E5FF019A28B92046FFF7C9FF204603B08F
:10488C0030BDA2602946206801F0FEF82268A368BA
:10489C000021D154F2E7002313B5C0E900330446DC
:1048AC008360037341B10846019101F04CF9019901
:1048BC0002462046FFF7D6FF204602B010BD13B5C6
:1048CC00044659B10846019101F03DF9019902469F
:1048DC002046FFF7C7FF204602B010BDFFF797FF39
:1048EC00F9E710B504468AB00023C4E90033A3608D
:1048FC002373084601A9FFF76DFF01A92046FFF7B6
:10490C00DEFF20460AB010BD70B505460E4609B94B
:10491C00002070BD6AB1846814442146FFF78EFFF5
:10492C000028F5D02868AB683146184401F0E6F849
:10493C00AC600120EDE710B58A6809680446FFF702
:10494C00E3FF10B92046FFF762FF204610BD13B5F8
:10495C00044629B92046FFF75AFF204602B010BD85
:10496C000846019101F0EFF8019902462046FFF745
:10497C00CBFF0028EED0F0E710B5036804469B6827
:10498C009847A368013BA3602BB923682046DB68DA
:10499C00BDE81040184710BD10B50446006808B1BA
:1049AC00FFF7A2FC204610BD0B68036013B15A68D8
:1049BC0001325A60704710B50446006828B143684C
:1049CC00013B43600BB9FFF7D7FF204610BD000039
:1049DC0010B5064C002320462360FFF77DFC2046D3
:1049EC00034A0449BDE8104001F034B85CE60320EA
:1049FC00F4E50320A5490D00F8B506460D468F18C1
:104A0C000024BD420CD0336815F8011B9B6830465E
:104A1C009847031E01DB1C44F3E7002C08BF1C461F
:104A2C002046F8BD13B50446084659B1019101F072
:104A3C008AF823680199DB680246204602B0BDE87B
:104A4C001040184702B010BD08B5FFF7EBFF08BDCA
:104A5C0003689B68184738B50D210546FFF7F8FF2A
:104A6C000A2104462846FFF7F3FF204438BD38B529
:104A7C000546FFF7D7FF04462846FFF7ECFF204416
:104A8C0038BD30B58BB000238DF82430012A98BF87
:104A9C000A2209AC0D46B1FBF2F101FB125303F0F3
:104AAC00FF03092B94BF30333733DBB2AA4204F82F
:104ABC00013DEFD92146FFF7B5FF0BB030BD00002B
:104ACC00014B024A1A60704760E60320E85B0D0058
:104ADC0008B50020FFF784FD28B1FFF771FD80F0C9
:104AEC000100C0B208BD0120FCE710B50020FFF7A3
:104AFC00E3FB0446A0B9FFF7C7FC012810D1204600
:104B0C00FFF7EAFC60B9FFF7E3FF10B9FFF750FDC0
:104B1C00F9E7FFF7DDFFBDE810400020FFF7CCBB45
:104B2C00204610BD1FB5FFF7E0FF1022002168469C
:104B3C0000F0B8FF00216846FFF7C6FB009805B0EF
:104B4C005DF804FB024B1A68024B1A60704700BFF9
:104B5C008CE5032064E603200021FFF7A5BC10B50B
:104B6C008368044613B1032201469847204610BDC2
:104B7C0010B50446FFF7F3FF204610BD13B50B46E6
:104B8C000246D0E900016C4684E8030093E8030078
:104B9C0082E8030094E8030083E8030002B010BD30
:104BAC000348044A04490023836000F053BF00BF4C
:104BBC0068E60320F4E503207D4B0D00014B1860E3
:104BCC00704700BF90E5032008B50B4B43B100F0D4
:104BDC00F1FB03681B699847002801DDAFF30080E7
:104BEC00064B43B100F064FC03681B69984700282E
:104BFC0001DDAFF3008008BD0000000000000000E4
:104C0C0008B5FFF7E1FFFFF74FFB014B186008BD3C
:104C1C00D4E703200248034A0349121A00F034BFB8
:104C2C0000F4032004F40320805D0D0007B500237D
:104C3C0000931A466FF07701FFF760FC03B05DF844
:104C4C0004FB000007B543880A2B08D0502B0BD16E
:104C5C00094B1B684BB103B05DF804EB1847FFF729
:104C6C00E5FF03B05DF804FB002300931A466FF0D8
:104C7C007701FFF743FCF4E77CE6032038B5124CD0
:104C8C001248134D0021FFF7EBFC2368AB42114B8C
:104C9C000CBF012200221A7002D0FFF7BBFF256067
:104CAC00FFF7FAFA044600F005FF0B4B13B1204650
:104CBC00AFF3008000210848FFF79AFCBDE83840AC
:104CCC0006480021FFF710BC00F40320C94B0D006F
:104CDC001E1C279A78E6032000000000514C0D00A2
:104CEC0070470020704710B51021044600F0B7FE45
:104CFC00204610BD08B5FFF7F6FF08BD30B5002201
:104D0C004FF69C74026084808D888C800C68858042
:104D1C0004600A6030BD10B504460068FFF778FCEB
:104D2C00204610BD38B5C468F4B12378022B03D1EA
:104D3C0004F10C00FFF7EFFF656835B12846FFF76B
:104D4C000EFF1021284600F08AFEA56835B12846D2
:104D5C00FFF705FF1021284600F081FE20461421A4
:104D6C00BDE8384000F07BBE38BD73B50E46044636
:104D7C0056F8043B00930D4601A83146FFF714FE8C
:104D8C00019A009B6260236001A8002301930093A9
:104D9C00FFF711FE3046FFF70EFE2846082100F003
:104DAC005EFE204602B070BD826810B50AB900F0F4
:104DBC005AFEBDE81040C368184708B5006800F1FA
:104DCC001001FFF7F1FF08BD826810B50AB900F0B9
:104DDC004AFEBDE81040C368184708B5006800F1EA
:104DEC001001FFF7F1FF08BD38B50023044603603E
:104DFC0010200D46FFF747F928B10123C0E9013314
:104E0C00024B0360C5602060204638BD105C0D006D
:104E1C0038B5002383608B6804460D462BB1022203
:104E2C009847EB68E360AB68A360204638BD000090
:104E3C00F0B589B004686846FFF760FF4FF00203D5
:104E4C00D4E84F2F002A03D1C4E8413F0029F7D101
:104E5C0025D104F10C0569462846FFF74FFFBFF337
:104E6C005B8F01236370002004F10803BFF35B8F99
:104E7C0053E8006F43E80002002AF9D1BFF35B8FBF
:104E8C006EB1FFF719FB78B129463046FFF78CFF5E
:104E9C003046FFF764FE1021304600F0E0FD684616
:104EAC00FFF739FF09B0F0BD314602A8FFF7B0FF9C
:104EBC00E068B4F9105008B100F028FE06901020FC
:104ECC00ADF81C50FFF7DFF80546E8B10027876006
:104EDC001820FFF7D8F8044688B10146876002A86D
:104EEC00FFF74CFE049BA268A360059B049206A9E5
:104EFC00E268E36004F110000592FFF7FFFE084B37
:104F0C00EB60084B2C60AB6006A8FFF704FF02A80F
:104F1C00FFF725FE002229460348FFF7D5FAB7E72D
:104F2C00C74D0D005D500D0011550D002DE9F047DA
:104F3C008AB005469DF848900C4617469846FFF7F0
:104F4C003FFB07AE824638BB4FF62E73059005A982
:104F5C003046ADF81830FFF7D1FE1420FFF793F868
:104F6C00044648B1022303700123C0E901AA43702F
:104F7C0031460C30FFF7C2FE2846214640F8044B60
:104F8C00FFF732FF3046FFF7C6FE05A8FFF7C3FE5A
:104F9C0028460AB0BDE8F0870C234FF0000A142015
:104FAC00CDE908AA0793FFF76EF8014628B1C0E9CE
:104FBC0001AA80F800A080F801A004A80391FFF7D3
:104FCC0013FF224B08930820FFF75DF8824628B1A7
:104FDC00039B40F8043B04A9FFF7E6FC00965FFA3C
:104FEC0089F3424639462046CDF824A0FFF7F0FA63
:104FFC00B8B9039B5B7803F0FF0293B94FF69C732F
:10500C0005A903A80592ADF81830FFF711FF05A804
:10501C00FFF781FE05A80999FFF7A7FE06A8FFF781
:10502C00CAFC039B059304A906A8FFF7BDFC059BCE
:10503C00069A2B606A60002306A806930593FFF777
:10504C00BAFC04A8FFF7B7FCA2E700BF21510D0082
:10505C00022AF8B5054607D0032A18D0012A01D137
:10506C000B6803600020F8BD18200E68FFF70BF8E2
:10507C00044650B13146FFF7CBFE3069B6F91470D7
:10508C0008B100F043FD2061A7822C60EAE70468B8
:10509C00002CE7D004F11000FFF73DFE2046FFF78F
:1050AC005EFD1821204600F0DAFCDBE738B5002362
:1050BC0083608B6804460D462BB102229847EB683F
:1050CC00E360AB68A360204638BD022A70B5044685
:1050DC0007D0032A12D0012A01D10B6803600020EB
:1050EC0070BD14200E68FEF7CEFF054620B1314688
:1050FC00FFF7DCFF337C2B742560F0E70468002C91
:10510C00EDD02046FFF72BFD1421204600F0A7FC24
:10511C00E5E70000F0B589B004460D4601A811463C
:10512C00FFF723FEA4B124B21DB1284600F0EEFC1B
:10513C00054601A803A90395ADF81040FFF778FECA
:10514C0003A8FFF7E8FD02A8FFF735FC09B0F0BD96
:10515C00019D0123D5E84F2F002A03D1C5E8413F1B
:10516C000029F7D1EFD12B73BFF35B8F6B702B1D25
:10517C00BFF35B8F53E8006F43E80042002AF9D17C
:10518C00BFF35B8F002EDED02046FFF795F9074664
:10519C0060B105F10C013046FFF716FE3046FFF703
:1051AC00DEFC1021304600F05AFCCCE7314603A857
:1051BC00FFF77CFF2B7B8DF81C301020FEF763FF74
:1051CC000546D0B187601420FEF75DFF044678B128
:1051DC008760014603A8FFF7D1FC059BA268A3607A
:1051EC00069B0592E268E3609DF81C3006922374DE
:1051FC00064BEB60064B2C60AB6003A8FFF7AFFCD3
:10520C00002229460348FFF75FF9C7E7E74D0D0079
:10521C00D7500D0011550D00704710B518210446DC
:10522C0000F01DFC204610BDF0B5037D062B8DB0A3
:10523C000E4600F104074FF0000412D000F10805EF
:10524C0015F8011D0A223046FFF71BFCAF4204443F
:10525C0019D0002CF4D02E213046FFF7F9FB044472
:10526C00EEE72F236A4639460A208DF80040FFF7F7
:10527C0043F8684600F067FC33680246DB68694611
:10528C0030469847044620460DB0F0BD10B5054B8E
:10529C000446112240F8043B002100F003FC204698
:1052AC0010BD00BF2C5C0D000346074A10B543F837
:1052BC00042B01F1100251F8044B43F8044B9142BA
:1052CC00F9D10A781A7010BD2C5C0D0010B59DF840
:1052DC00084044EA032343EA024242EA0161042300
:1052EC004160037510BD13B5CB7800938B784A7869
:1052FC000978FFF7EBFF02B010BD4174704770479F
:10530C0008B50021007CFFF7A7F840EAE07008BD63
:10531C0008B50121007CFFF79FF840EAE07008BD5A
:10532C0008B5007CFFF790F820EAE07008BD08B5DE
:10533C00007CFFF781F820EAE07008BD13B5044645
:10534C00007C0191FFF780F80028019901DC607C5A
:10535C0020B1207CFFF788F820EAE07002B010BD85
:10536C00007CFFF789B810B51421044600F077FBD8
:10537C00204610BD10B54FF47A7304460846002140
:10538C00C4E90113044B2360012320746374114698
:10539C00FFF742F8204610BD405C0D00007C002257
:1053AC00FFF742B810B514220446002100F07AFB36
:1053BC00204610BD10B5104C88B003A8FFF7F2FFC3
:1053CC002178BFF35B8F11F0010111D120460191BF
:1053DC00FEF75FFE019958B103AA0848FFF7CAFF10
:1053EC002046FEF75BFE064A0649044800F032FBF5
:1053FC00024808B010BD00BF80E6032084E60320FD
:10540C00F4E503200B530D0070474174704708B549
:10541C00007CFEF7B1FF20EAE07008BD08B5007C07
:10542C00FEF782FF20EAE07008BD08B5007CFEF7AD
:10543C008BFF40EAE07008BD08B5007CFEF77CFFEE
:10544C0040EAE07008BD007CFEF786BF37B5457CAE
:10545C0004462DB1207C03B0BDE83040FEF75CBFA4
:10546C00007C0191FEF788FF00280199F2DC2846A8
:10547C0003B030BD10B51421044600F0F0FA2046FC
:10548C0010BD000010B54FF0000C04460846114644
:10549C004FF47A72C4E901C2044A226001222074DA
:1054AC0062741A46FEF730FF204610BD705C0D008A
:1054BC0013B50E4C2178BFF35B8F11F0010112D1A3
:1054CC0020460191FEF7E5FD019960B1084A094BB0
:1054DC000948FFF7D7FF2046FEF7E0FD074A0849C9
:1054EC00054800F0B7FA044802B010BD98E6032056
:1054FC009CE6032020E70320A4E70320F4E5032027
:10550C0015540D0010B5836804460BB900F0ABFAC6
:10551C00C3689847A3681BB10322214620469847CD
:10552C0020461021BDE8104000F099BA7047F8B53C
:10553C00064615460C468F18BC4206D0336814F844
:10554C00011B9B6830469847F6E72846F8BD007C5F
:10555C000022FEF719BF007C0021FEF71DBF007C66
:10556C000021FEF721BF007C0021FEF725BF007C47
:10557C000021FEF729BF10B51421044600F06FFA84
:10558C00204610BD10B54FF47A730446084600212E
:10559C00C4E90113034B236020741146FEF724FF6A
:1055AC00204610BDA05C0D00002240681146FEF79D
:1055BC00C7BF002240681146FEF7E2BF00224068D8
:1055CC001146FEF7EDBF40680022FEF7E1BF4068D0
:1055DC00002281F00101FEF7CBBF002340681A4680
:1055EC001946FEF7BDBF002340681A461946FEF760
:1055FC00AFBF002240681146FEF792BF4068002200
:10560C000221FEF795BF002340681A46FEF780BFC3
:10561C00024B04225A60024A1A607047B8E7032012
:10562C00C85C0D00002340681A46FEF771BF406845
:10563C0000220221FEF77CBF002240681146FEF7D3
:10564C006FBF002240681146FEF77ABF0023406806
:10565C001A461946FEF77CBF002340681A461946C5
:10566C00FEF77EBF4068002281F00101FEF780BF8B
:10567C0040680022FEF78CBF002240681146FEF7FE
:10568C008FBF002240681146FEF77ABF2DE9F04328
:10569C00002495B016460D460746FFF7F7FD214648
:1056AC0018220EA8009400F0FDF94023CDE90C342B
:1056BC0021466B460CAA3046FEF7D6FD0446002860
:1056CC0046D1024601216868FEF73AFF0221804666
:1056DC0022466868FEF734FF009E81462146002E64
:1056EC0036D0002934D17368022B03D00A2B0BD08F
:1056FC00F669F4E7B8F1000F04D07169384604314B
:10570C00FFF7F1FD4146F3E7B9F1000F01D149462E
:10571C00EEE77469102201A800F0C4F906238DF895
:10572C00143001AD04F108031834186859682A467E
:10573C0003C20833A3421546F7D101A906A807AD49
:10574C00FFF7B2FD0FCD3C1D0FC42B682370DEE7B5
:10575C000098FEF781FD384615B0BDE8F0830000D7
:10576C00024B034A1A6000225A607047C0E70320BC
:10577C00FC5C0D00704710B51421044600F06FF965
:10578C00204610BD38B51546D0E903239342044694
:10579C0007D2D21A8068AA4228BF2A46184400F0C1
:1057AC0073F922692A44226138BD0EB417B505ABD2
:1057BC00044653F8042BE1680193036980688B421B
:1057CC0038BFC91A184428BF0021019BFEF730FFCF
:1057DC0023691844206103B0BDE8104003B0704742
:1057EC0007B503688DF807109B6801220DF10701BE
:1057FC00984703B05DF804FB10B57D210446FFF714
:10580C00EFFF01232371204610BD08B50379012B4E
:10581C0002D0022B04D008BD2C21FFF7E1FFFAE7E0
:10582C003A21FAE710B50446FFF7EFFF20467B213B
:10583C00FFF7D6FF00232371204610BD13B5044695
:10584C000191FFF7E2FF2368019ADB6803492046C8
:10585C00984701232046237102B010BD285D0D002E
:10586C002DE9F0410D4617462221DFF8A0800446B1
:10587C002F44FFF7B5FF2946BD422A4638D015F80C
:10588C00016B222E03D05C2E01D01F2EF4D823687E
:10589C00521A9B68204698475C212046FFF7A0FFD0
:1058AC000D2E0AD8072E1CD9A6F10803052B18D8E3
:1058BC00DFE803F00D0F11171315222E01D05C2E0B
:1058CC000FD131462046FFF78BFF2946D4E76221E2
:1058DC00F8E77421F6E76E21F4E76621F2E772210E
:1058EC00F0E723683246DB68414620469847ECE7F0
:1058FC008D4204D023686A1A9B682046984722215F
:10590C002046FFF76DFFBDE8F08100BF2B5D0D0059
:10591C0013B50446CDE90021FFF777FF2046DDE9FA
:10592C000021FFF79DFF02232046237102B010BD1A
:10593C00232813B502D9002002B010BDA0F10B032F
:10594C00022B1AD8174C2178BFF35B8F11F0010191
:10595C000BD120460191FEF79CFB019928B112480E
:10596C00FEF7C4FE2046FEF799FB0F4B1878FEF7A6
:10597C004BFD0028DFD10120DEE7012809D800F01B
:10598C0041F80021007CFEF727FD80F00100C0B239
:10599C00D2E709380128EED8FFF78AFD007CFEF724
:1059AC00E3FCF2E7C8E70320CCE70320232838B553
:1059BC0004460D460AD8FF2908D0FFF7B9FF28B1D5
:1059CC0029462046BDE83840FEF756BC38BDFEF7E8
:1059DC005BBC000038B5002320254380142304460B
:1059EC000380856005610649284600F03AF80449B1
:1059FC006060284600F035F8E060204638BD00BFF6
:105A0C004C5D0D0030B50F4D2978BFF35B8F11F055
:105A1C00010487B013D12846FEF73BFB78B101A8EF
:105A2C00FFF7D8FF01AA21460748FFF7ABFD284630
:105A3C00FEF734FB054A0649034800F00BF8024810
:105A4C0007B030BDD8E70320DCE70320F4E50320E2
:105A5C0039550D000B460146184600F007B8FEF705
:105A6C0016BBFEF712BB08B5FEF7EAFD10B5054CE8
:105A7C0013462CB10A4601460220AFF3008010BD3C
:105A8C002046FCE7000000000A44914200F1FF337D
:105A9C0000D1704710B511F8014B03F8014F91423A
:105AAC00F9D110BD02440346934200D1704703F86C
:105ABC00011BF9E738B50D4B1D68AB6B04467BB980
:105ACC001820FEF79DFD0A4A0A4BA863C0E9002383
:105ADC00094B83600B23838101220023C0E904233B
:105AEC00AB6B00221C615A6138BD00BF90E50320EE
:105AFC000E33CDAB34126DE6ECDE0500034611F827
:105B0C00012B03F8012B002AF9D17047024B0146F7
:105B1C00186800F003B800BF90E5032037B50446C1
:105B2C0008460D4600F00FF8421C11462046019223
:105B3C00FEF78EFD044618B1019A2946FFF7A4FF23
:105B4C00204603B030BD034613F8012B002AFBD1CD
:105B5C00181A0138704700001D400D0059400D0007
:105B6C0081400D0085400D000000000076616C75D1
:105B7C00650074696D657374616D7000636F325F7D
:105B8C00636F6E63656E74726174696F6E003B2037
:105B9C0000636F7272656374656420434F322070CA
:105BAC00706D3A20000000000000000000000000B2
:105BBC00DB460D00D1460D00C7460D00BD460D005D
:105BCC00B1460D00A5460D0099460D0091460D00FD
:105BDC0087460D007D460D0099560D0061707000D2
:105BEC0025592D256D2D25645425483A254D3A25EA
:105BFC0053257A0061736374696D650000000000C1
:105C0C0000000000ED4C0D00F34C0D00314D0D006B
:105C1C00014D0D00EF4C0D000000000000000000D5
:105C2C0035520D0025520D0027520D0000000000CA
:105C3C00000000000B530D0073530D0049530D0071
:105C4C00054A0D003B530D000D530D001D530D0067
:105C5C006D530D002D530D0007530D000000000077
:105C6C000000000015540D0081540D0059540D0016
:105C7C00054A0D0029540D0045540D0037540D00F4
:105C8C0053540D0017540D001B540D000000000060
:105C9C000000000039550D0083550D005B550D00BB
:105CAC003B550D0063550D006B550D0073550D00E4
:105CBC007B550D00000000000000000013560D0085
:105CCC0009560D00FF550D00B5550D00F3550D008F
:105CDC00E7550D00DB550D00D3550D00C9550D00D2
:105CEC00BF550D0099560D0000000000000000008B
:105CFC0031560D003B560D0045560D004F560D000C
:105D0C0059560D0065560D0071560D007D560D004F
:105D1C0085560D008F560D0099560D0025640075A3
:105D2C002530347800000000000000000000000066
:105D3C0081570D0083570D0091570D00B7570D007B
:105D4C000000000059420D00E5460D002D470D00E6
:105D5C00DD490D00CD4A0D00514B0D00AD4B0D0032
:105D6C001D560D006D570D000000000000000000D6
:045D7C000000000023
:045D8000000000001F
:105D8400005C0D0094E5032000000000000000000A
:105D940000000000000000000000000000000000FF
:105DA40000000000000000000000000000000000EF
:105DB40000000000000000000000000000000000DF
:105DC40000000000000000000000000000000000CF
:105DD40000000000000000000000000000000000BF
:085DE4000000000000000000B7
:105DEC00FFFFFFFF00000102030405060708090A74
:105DFC000B0C0D0E0F101112131415161718191A6F
:085E0C001B1C1D1E1F202800B5
:045E14007856341276
:04000003D000401CCD
:00000001FF
