:02000002D0002C
:1040000000400D0084550D00000006000C00050165
:084010000401DB0700000000C1
:0440180014530D0030
:10401C0009480A49884208B505D0094A824202D0AB
:10402C00121A01F027F90748074A0021121A01F069
:10403C002FF9014808BD00BFD0E50320F4540D0052
:10404C0038E6032038E60320F0E7032070B5074E6E
:10405C00074C00F099FDA41BA4080025A54200D133
:10406C0070BD56F8043B98470135F7E7CC540D006A
:10407C00EC540D0000F013B808B500F01DF8BDE8C5
:10408C00084000F043BD00F0B5BA00F0BBBA0078B0
:10409C00B0FA80F04009704701230370704708B5EF
:1040AC0000F072FE4FF4E13100F062FEBDE8084012
:1040BC000021062001F072B82DE9F04F012189B0E2
:1040CC00062001F07CF8DFF81C82DFF81C92C8F89F
:1040DC00000000F033F9012106460620D8F8005004
:1040EC0001F06DF8D8F80030C9F80000002B00F092
:1040FC00E2804FF47A74B5FBF4F5B0FBF4F400F005
:10410C001DF9A319C71AA5F1020BEB1941F2883658
:10411C00043B06FB0BF696FBF3F600F035FE694903
:10412C00824604A800F099FB0A220BEB8B0168462F
:10413C0000F0B9FB694604A800F0F3FB624900F0FB
:10414C00FCFB0168504600F051FC684600F03AFB5D
:10415C0004A800F037FB00F017FE5C49824604A867
:10416C0000F07BFB0A223146684600F09CFB694656
:10417C0004A800F0D6FB544900F0DFFB0168504660
:10418C0000F034FC684600F01DFB04A800F01AFB9C
:10419C0000F0FAFD4E49064604A800F05EFB0A2228
:1041AC00D8F80010684600F091FB694604A800F0AE
:1041BC00B8FB454900F0C1FB0168304600F016FC25
:1041CC00684600F0FFFA04A800F0FCFA00F0DCFDF1
:1041DC004049064604A800F040FB0A22D9F800101A
:1041EC00684600F073FB694604A800F09AFB364958
:1041FC0000F0A3FB0168304600F0F8FB684600F0C5
:10420C00E1FA04A800F0DEFA00F0BEFD32490646E1
:10421C0004A800F022FB0A222946684600F043FB62
:10422C00694604A800F07DFB274900F086FB016875
:10423C00304600F0DBFB684600F0C4FA04A800F03E
:10424C00C1FA00F0A1FD2549054604A800F005FBC4
:10425C000A222146684600F026FB694604A800F0B5
:10426C0060FB194900F069FB0168284600F0BEFBB1
:10427C00684600F0A7FA04A800F0A4FA00F084FD48
:10428C001749044604A800F0E8FA0A2239466846A1
:10429C0000F009FB694604A800F043FB0A4900F052
:1042AC004CFB0168204600F0B4FB684600F08AFA2B
:1042BC0004A800F087FA40F6C41000F0E5FB09B042
:1042CC00BDE8F08F35530D0028530D002B530D0016
:1042DC003F530D004C530D0059530D0060530D000E
:1042EC0069530D003CE6032040E6032008B5024B61
:1042FC001B689B68019308BD6802030008B5024B5C
:10430C001B68DB68019308BD6802030008B5024B0B
:10431C001B689B68019308BD2C02030008B5024B77
:10432C001B68DB6C019308BD2C02030008B5024B23
:10433C001B685B68019308BD1802030008B5024BAB
:10434C001B685B69019308BD1802030008B5024B9A
:10435C001B685B6C019308BD4802030008B5024B57
:10436C001B689B6C019308BD4802030008B5024B07
:10437C001B685B69019308BD6402030008B5024B1E
:10438C001B681B68019308BD3C02030008B5024B77
:10439C001B68DB68019308BD3C02030008B5024BA7
:1043AC001B681B69019308BD3C02030008B5024B56
:1043BC001B685B69019308BD3C02030008B5024B06
:1043CC001B689B69019308BD3C02030008B5024BB6
:1043DC001B68DB69019308BD3C02030008B5024B66
:1043EC001B681B6A019308BD3C02030008B5024B15
:1043FC001B689B6A019308BD3C02030008B5024B85
:10440C001B681B6A019308BD2802030008B5024B08
:10441C001B685B6A019308BD2802030008B5024BB8
:10442C001B689B6A019308BD2802030008B5024B68
:10443C001B68DB6A019308BD2802030008B5024B18
:10444C001B681B6B019308BD2802030008B5024BC7
:10445C001B685B6B019308BD2802030008B5024B77
:10446C001B681B6C019308BD2802030008B5024BA6
:10447C001B68DB69019308BD3002030008B5024BD1
:10448C001B681B6A019308BD3002030008B5024B80
:10449C001B681B68019308BD4C02030008B5024B56
:1044AC001B685B68019308BD4C02030008B5024B06
:1044BC001B681B69019308BD4C02030008B5024B35
:1044CC001B685B69019308BD4C02030008B5024BE5
:1044DC001B689B69019308BD4C02030008B5024B95
:1044EC001B68DB69019308BD4C02030008B5024B45
:1044FC001B681B6A019308BD4C02030008B5024BF4
:10450C001B685B68019308BD2002030008B5024BD1
:10451C001B685B69019308BD2002030008B5034BBF
:10452C001B68D3F88830019308BD000020020300FB
:10453C0008B5034B1B68D3F89430019308BD0000F9
:10454C002002030008B5024B1B685B68019308BD91
:10455C004002030008B5024B1B689B68019308BD21
:10456C004002030008B5024B1B68DB68019308BDD1
:10457C004002030008B5024B1B681B69019308BD80
:10458C004002030008B5024B1B685B69019308BD30
:10459C004002030008B5024B1B689B69019308BDE0
:1045AC004002030008B5024B1B68DB69019308BD90
:1045BC004002030008B5024B1B681B6A019308BD3F
:1045CC004002030008B5024B1B681B6B019308BD2E
:1045DC004002030008B5024B1B685B6B019308BDDE
:1045EC004002030008B5024B1B68DB6B019308BD4E
:1045FC004402030008B5024B1B681B68019308BDFD
:10460C001C02030008B5024B1B685B68019308BDD4
:10461C001C02030008B5024B1B689B68019308BD84
:10462C001C02030008B5024B1B685B6C019308BDB0
:10463C001C020300002240681146FFF7BBBF00229A
:10464C0040681146FFF7C6BF40680022FFF7BABFAB
:10465C004068002281F00101FFF7A4BF00234068ED
:10466C001A461946FFF796BF002340681A461946AA
:10467C00FFF788BF002240681146FFF77BBF00227E
:10468C0040681146FFF766BF406800220221FFF721
:10469C0069BF002340681A46FFF754BF024B032240
:1046AC005A60024A1A60704744E6032078530D00A2
:1046BC0010B5044608462170FFF7D8FE002363604E
:1046CC00204610BD10B50446006818B1FFF79AFFDC
:1046DC000023236010BD10B50446FFF7F3FF2046FE
:1046EC0010BD000010B5094B094C022200201A60C5
:1046FC00084B2060A080A071A360FFF7FFFE20464E
:10470C00054A0649BDE8104000F09CBD58E6032060
:10471C004CE603200000FFFF38E60320E3460D00C3
:10472C0010B5044600F0E8FD0138231820468342FA
:10473C0006D90278197800F8011B03F80129F6E76D
:10474C0010BD70B50C46911E2229054622D8204674
:10475C006DB1B5FBF2F602FB1655E9B2092D94BF0B
:10476C0030315731C9B200F8011B3546F0E702462B
:10477C0023443021934202D902F8011BFAE71A1A9A
:10478C00834238BF0022002383542046FFF7C8FF22
:10479C00204670BD0020FCE738B5031E0C461546BC
:1047AC000EDAB3F1004F4FF02D0214BF58421846E9
:1047BC0001230A702A461944FFF7C3FF204638BD6F
:1047CC000123F9E710B504460068FFF71BFF2046EC
:1047DC0010BD10B50446006808B1FFF713FF0023A5
:1047EC00C4E90133236010BD38B504460D4600689A
:1047FC000131FFF70FFF10B1C4E90005012038BDEE
:10480C0010B50368044623B143688B4201D30120E1
:10481C0010BD2046FFF7E8FF0028F9D0A368002B55
:10482C00F5D122681370F2E737B50D4611460192A7
:10483C000446FFF7E5FF019A28B92046FFF7C9FFA8
:10484C00204603B030BDA2602946206800F012FD5E
:10485C002268A3680021D154F2E7002313B5C0E904
:10486C00003304468360037341B10846019100F0A4
:10487C0043FD019902462046FFF7D6FF204602B0C1
:10488C0010BD13B5044659B10846019100F034FD32
:10489C00019902462046FFF7C7FF204602B010BD23
:1048AC00FFF797FFF9E710B504468AB00023C4E977
:1048BC000033A3602373084601A9FFF76DFF01A91C
:1048CC002046FFF7DEFF20460AB010BD10B50446A7
:1048DC008AB00023C4E90033A36023730846012384
:1048EC0001A9FFF72EFF01A92046FFF7CAFF2046BA
:1048FC000AB010BD70B505460E4609B9002070BD52
:10490C006AB1846814442146FFF77AFF0028F5D079
:10491C002868AB683146184400F0E6FCAC60012016
:10492C00EDE710B58A6809680446FFF7E3FF10B994
:10493C002046FFF74EFF204610BD13B5044629B99B
:10494C002046FFF746FF204602B010BD08460191F5
:10495C0000F0D2FC019902462046FFF7CBFF00285D
:10496C00EED0F0E710B50446006808B1FFF7F6FC8E
:10497C00204610BD10B5064C002320462360FFF7DF
:10498C00E5FC2046034A0449BDE8104000F05ABC3F
:10499C005CE6032038E6032071490D00F8B50646A5
:1049AC000D468F180024BD420CD0336815F8011B3E
:1049BC009B6830469847031E01DB1C44F3E7002C30
:1049CC0008BF1C462046F8BD13B50446084659B12D
:1049DC00019100F091FC23680199DB6802462046A6
:1049EC0002B0BDE81040184702B010BD08B5FFF783
:1049FC00EBFF08BD03689B68184738B50D210546C9
:104A0C00FFF7F8FF0A2104462846FFF7F3FF20447E
:104A1C0038BD38B50546FFF7D7FF04462846FFF7E3
:104A2C00ECFF204438BD30B58BB000238DF824301A
:104A3C00012A98BF0A2209AC0D46B1FBF2F101FB29
:104A4C00125303F0FF03092B94BF30333733DBB21F
:104A5C00AA4204F8013DEFD92146FFF7B5FF0BB090
:104A6C0030BD0000014B024A1A60704760E603201B
:104A7C00A4530D00024B1A68024B1A60704700BF1A
:104A8C00D0E5032064E603200021FFF73FBD10B5FD
:104A9C008368044613B1032201469847204610BD93
:104AAC0010B50446FFF7F3FF204610BD0348044A37
:104ABC0004490023836000F0C5BB00BF68E60320F7
:104ACC0038E60320AD4A0D00014B1860704700BF5B
:104ADC00D4E5032008B50B4B43B100F055F903683E
:104AEC001B699847002801DDAFF30080064B43B1EA
:104AFC0000F0C8F903681B699847002801DDAFF383
:104B0C00008008BD000000000000000008B5FFF7A1
:104B1C00E1FFFFF713FC014B186008BDD4E703203D
:104B2C000248034A0349121A00F0A4BB00F4032004
:104B3C0004F40320F0540D0007B5002300931A462B
:104B4C006FF07701FFF7F4FC03B05DF804FB000095
:104B5C0007B543880A2B08D0502B0BD1094B1B6887
:104B6C004BB103B05DF804EB1847FFF7E5FF03B05A
:104B7C005DF804FB002300931A466FF07701FFF7F2
:104B8C00D7FCF4E77CE6032038B5124C1248134DE1
:104B9C000021FFF747FD2368AB42114B0CBF0122EC
:104BAC0000221A7002D0FFF7BBFF2560FFF7BEFB97
:104BBC00044600F075FB0B4B13B12046AFF300809D
:104BCC0000210848FFF70EFDBDE8384006480021DB
:104BDC00FFF7A4BC00F40320D54A0D001E1C279A35
:104BEC0078E60320000000005D4B0D00704710B507
:104BFC001821044600F02BFB204610BDF0B5037DB8
:104C0C00062B8DB00E4600F104074FF0000412D0B5
:104C1C0000F1080515F8011D0A223046FFF703FFC5
:104C2C00AF42044419D0002CF4D02E213046FFF7AB
:104C3C00E1FE0444EEE72F236A4639460A208DF83C
:104C4C000040FFF793FB684600F056FB33680246C2
:104C5C00DB68694630469847044620460DB0F0BDE7
:104C6C0010B5054B0446112240F8043B002100F01E
:104C7C000FFB204610BD00BFCC530D000346074A66
:104C8C0010B543F8042B01F1100251F8044B43F812
:104C9C00044B9142F9D10A781A7010BDCC530D0017
:104CAC0010B59DF8084044EA032343EA024242EA65
:104CBC00016104234160037510BD13B5CB780093DB
:104CCC008B784A780978FFF7EBFF02B010BD41747E
:104CDC007047704708B50021007CFFF7F7FB40EAEE
:104CEC00E07008BD08B50121007CFFF7EFFB40EA3E
:104CFC00E07008BD08B5007CFFF7E0FB20EAE0702F
:104D0C0008BD08B5007CFFF7D1FB20EAE07008BDB8
:104D1C0013B50446007C0191FFF7D0FB00280199E4
:104D2C0001DC607C20B1207CFFF7D8FB20EAE0702E
:104D3C0002B010BD007CFFF7D9BB10B5142104469E
:104D4C0000F085FA204610BD10B54FF47A73044676
:104D5C0008460021C4E90113044B2360012320748D
:104D6C0063741146FFF792FB204610BDE0530D0013
:104D7C00007C0022FFF792BB10B5142204460021E0
:104D8C0000F086FA204610BD10B5104C88B003A870
:104D9C00FFF7F2FF2178BFF35B8F11F0010111D106
:104DAC0020460191FFF773F9019958B103AA0848FD
:104DBC00FFF7CAFF2046FFF76FF9064A0649044879
:104DCC0000F040FA024808B010BD00BF80E6032096
:104DDC0084E6032038E60320DF4C0D007047417455
:104DEC00704708B5007CFFF701FB20EAE07008BDB6
:104DFC0008B5007CFFF7D2FA20EAE07008BD08B5D0
:104E0C00007CFFF7DBFA40EAE07008BD08B5007CD7
:104E1C00FFF7CCFA40EAE07008BD007CFFF7D6BA89
:104E2C0037B5457C04462DB1207C03B0BDE830403D
:104E3C00FFF7ACBA007C0191FFF7D8FA0028019972
:104E4C00F2DC284603B030BD10B51421044600F046
:104E5C00FEF9204610BD000010B54FF0000C0446C2
:104E6C00084611464FF47A72C4E901C2044A226022
:104E7C000122207462741A46FFF780FA204610BD96
:104E8C0010540D0013B50E4C2178BFF35B8F11F04D
:104E9C00010112D120460191FFF7F9F8019960B197
:104EAC00084A094B0948FFF7D7FF2046FFF7F4F8EB
:104EBC00074A0849054800F0C5F9044802B010BD7E
:104ECC0098E603209CE6032020E70320A4E70320B8
:104EDC0038E60320E94D0D007047F8B50646154637
:104EEC000C468F18BC4206D0336814F8011B9B6823
:104EFC0030469847F6E72846F8BD007C0022FFF7BD
:104F0C007DBA007C0021FFF781BA007C0021FFF7FD
:104F1C0085BA007C0021FFF789BA007C0021FFF7DD
:104F2C008DBA10B51421044600F091F9204610BD3D
:104F3C0010B54FF47A73044608460021C4E90113F6
:104F4C00034B236020741146FFF788FA204610BDEE
:104F5C0040540D00002240681146FFF70BBB0022A5
:104F6C0040681146FFF726BB002240681146FFF748
:104F7C0031BB40680022FFF725BB4068002281F05E
:104F8C000101FFF70FBB002340681A461946FFF7D3
:104F9C0001BB002340681A461946FFF7F3BA0022FA
:104FAC0040681146FFF7D6BA406800220221FFF78D
:104FBC00D9BA002340681A46FFF7C4BA024B042240
:104FCC005A60024A1A607047B8E7032068540D0013
:104FDC00002340681A46FFF7B5BA40680022022148
:104FEC00FFF7C0BA002240681146FFF7B3BA00229F
:104FFC0040681146FFF7BEBA002340681A461946AE
:10500C00FFF7C0BA002340681A461946FFF7C2BA28
:10501C004068002281F00101FFF7C4BA4068002209
:10502C00FFF7D0BA002240681146FFF7D3BA00222E
:10503C0040681146FFF7BEBA2DE9F043002495B045
:10504C0016460D460746FFF70BFE214618220EA802
:10505C00009400F01DF94023CDE90C3421466B4639
:10506C000CAA3046FFF74AF90446002846D10246FE
:10507C0001216868FFF77EFA0221804622466868A3
:10508C00FFF778FA009E81462146002E36D0002983
:10509C0034D17368022B03D00A2B0BD0F669F4E7DA
:1050AC00B8F1000F04D0716938460431FFF705FEE2
:1050BC004146F3E7B9F1000F01D14946EEE77469B7
:1050CC00102201A800F0E4F806238DF8143001AD8D
:1050DC0004F108031834186859682A4603C20833C7
:1050EC00A3421546F7D101A906A807ADFFF7C6FDE7
:1050FC000FCD3C1D0FC42B682370DEE70098FFF723
:10510C00F5F8384615B0BDE8F0830000024B034AB1
:10511C001A6000225A607047C0E703209C540D00AF
:10512C00232813B502D9002002B010BDA0F10B0347
:10513C00022B1AD8174C2178BFF35B8F11F00101A9
:10514C000BD120460191FEF7A2FF019928B112481C
:10515C00FFF7AEFA2046FEF79FFF0F4B1878FFF7CC
:10516C008DF90028DFD10120DEE7012809D800F0F5
:10517C0041F80021007CFFF769F980F00100C0B212
:10518C00D2E709380128EED8FFF77CFE007CFFF748
:10519C0025F9F2E7C8E70320CCE70320232838B52C
:1051AC0004460D460AD8FF2908D0FFF7B9FF28B1ED
:1051BC0029462046BDE83840FFF7A8B838BDFFF7B0
:1051CC00ADB8000038B500232025438014230446D5
:1051DC000380856005610649284600F03AF80449C9
:1051EC006060284600F035F8E060204638BD00BF0E
:1051FC00C8540D0030B50F4D2978BFF35B8F11F0FB
:10520C00010487B013D12846FEF741FF78B101A8FD
:10521C00FFF7D8FF01AA21460748FFF789FE284669
:10522C00FEF73AFF054A0649034800F00BF802481E
:10523C0007B030BDD8E70320DCE7032038E60320B5
:10524C00E54E0D000B460146184600F005B8FEF77A
:10525C001CBFFEF718BF000010B5054C13462CB14F
:10526C000A4601460220AFF3008010BD2046FCE741
:10527C00000000000A44914200F1FF3300D1704756
:10528C0010B511F8014B03F8014F9142F9D110BD43
:10529C0002440346934200D1704703F8011BF9E71F
:1052AC0038B50D4B1D68AB6B04467BB91820FFF766
:1052BC00A1F90A4A0A4BA863C0E90023094B836091
:1052CC000B23838101220023C0E90423AB6B002252
:1052DC001C615A6138BD00BFD4E503200E33CDAB41
:1052EC0034126DE6ECDE0500034611F8012B03F8D1
:1052FC00012B002AF9D17047034613F8012B002A21
:10530C00FBD1181A013870471D400D0059400D0093
:10531C0081400D0085400D00000000003B20006323
:10532C006F7272656374656420434F322070706DC8
:10533C003A20004455524154494F4E5F313A2000B7
:10534C004455524154494F4E5F323A200048494728
:10535C00483A2000484947485F323A20004C4F57A2
:10536C003A20000000000000000000009F460D00E5
:10537C0095460D008B460D0081460D0075460D00BF
:10538C0069460D005D460D0055460D004B460D005F
:10539C0041460D0045500D006170700025592D25BA
:1053AC006D2D25645425483A254D3A2553257A0010
:1053BC0061736374696D65000000000000000000FB
:1053CC00094C0D00F94B0D00FB4B0D0000000000CB
:1053DC0000000000DF4C0D00474D0D001D4D0D0071
:1053EC00A9490D000F4D0D00E14C0D00F14C0D00C5
:1053FC00414D0D00014D0D00DB4C0D000000000077
:10540C0000000000E94D0D00554E0D002D4E0D0015
:10541C00A9490D00FD4D0D00194E0D000B4E0D0050
:10542C00274E0D00EB4D0D00EF4D0D000000000060
:10543C0000000000E54E0D002F4F0D00074F0D0032
:10544C00E74E0D000F4F0D00174F0D001F4F0D00B5
:10545C00274F0D000000000000000000BF4F0D00A2
:10546C00B54F0D00AB4F0D00614F0D009F4F0D0060
:10547C00934F0D00874F0D007F4F0D00754F0D00A2
:10548C006B4F0D0045500D000000000000000000A7
:10549C00DD4F0D00E74F0D00F14F0D00FB4F0D00E0
:1054AC0005500D0011500D001D500D0029500D0020
:1054BC0031500D003B500D0045500D000000000018
:1054CC00A9460D00F1460D0081490D00714A0D00F1
:1054DC00814A0D00B94A0D00C94F0D0019510D003C
:0454EC0000000000BC
:0454F00000000000B8
:1054F400BC530D00D8E503200000000000000000AC
:105504000000000000000000000000000000000097
:105514000000000000000000000000000000000087
:105524000000000000000000000000000000000077
:105534000000000000000000000000000000000067
:105544000000000000000000000000000000000057
:0855540000000000000000004F
:10555C00FFFFFFFF00000102030405060708090A0C
:10556C000B0C0D0E0F101112131415161718191A07
:08557C001B1C1D1E1F2028004E
:04558400785634120F
:04000003D000401CCD
:00000001FF
