:02000002D0002C
:1040000000400D00F4650D00000006000C000501E5
:084010000401DB0700000000C1
:04401800F0620D0045
:10401C0009480A49884208B505D0094A824202D0AB
:10402C00121A02F0F7F80748074A0021121A02F098
:10403C00FFF8014808BD00BF74E5032064650D005E
:10404C00DCE50320DCE50320F0E7032070B5074E28
:10405C00074C01F0C1F9A41BA4080025A54200D10E
:10406C0070BD56F8043B98470135F7E72C650D00F9
:10407C0054650D0000F016B808B500F0C7F8BDE89F
:10408C00084001F06BB900F055BE00F053BE00F0D3
:10409C0059BE0078B0FA80F04009704701230370D4
:1040AC007047000008B5094800F015FA074800F001
:1040BC004BFA01F02DFD4FF4E13101F01DFDBDE88F
:1040CC0008400021062002F01FB800BF2CE6032098
:1040DC0070B58AB0054601F0D3F81F4A1F4E059201
:1040EC0000230446402205A8CDE908238DF818309A
:1040FC00079601F045FF0522194905A801F0B6FF06
:10410C00294601F049FF0922164905A801F0AEFF26
:10411C00214601F041FF05A801F01CFF124B134989
:10412C001B788DF8003032463C2303A801F0ACFA22
:10413C00049C7CB16368013B63605BB923682046D7
:10414C009B689847A368013BA3601BB92368204672
:10415C00DB6898470AB070BD18650D00ECE50320CC
:10416C0004630D000A630D00E0E5032014630D00E9
:10417C00542809D8A0EB8001013900EB4000002243
:10418C00C9B2C0B200F0CABBA9280BD85538C0B20E
:10419C0000EB4002A0EB80000138D2B20021C0B28B
:1041AC0000F0BCBB5630C1B2A1EB8102013A01EB6D
:1041BC004101D2B2C9B2002000F0B0BB2DE9F041F0
:1041CC00114F0646002400250F4800F0ACFB1FFAE7
:1041DC0085F840450AD92819C0B2FFF7C9FF4146F6
:1041EC000246384600F056FB0135EDE738460134FF
:1041FC0000F0AAF9A4B2304601F05CF8B4F5807F67
:10420C00E1D1BDE8F08100BF2CE603202DE9F04F91
:10421C00142089B0FFF7D2FF0121062001F09EFF88
:10422C00DFF82082DFF82092C8F8000000F0D6FBFF
:10423C00012105460620D8F8006001F08FFFD8F860
:10424C000030C9F80000002B00F0E5804FF47A74C0
:10425C00B6FBF4F6B0FBF4F400F0C0FB6319C71A1C
:10426C00A6F1020B41F28835F319043B05FB0BF563
:10427C0095FBF3F501F04CFC6A49824604A800F06A
:10428C00A4FE0A220BEB8B01684600F0C4FE6946C3
:10429C0004A800F0FEFE644900F007FF01685046D8
:1042AC0000F080FF684600F045FE04A800F042FED6
:1042BC0001F02EFC5D49824604A800F086FE0A221D
:1042CC002946684600F0A7FE694604A800F0E1FE06
:1042DC00554900F0EAFE0168504600F076FF68464A
:1042EC0000F028FE04A800F025FE2846FFF7F0FE9B
:1042FC0001F00EFC4E49054604A800F066FE0A22A9
:10430C00D8F80010684600F099FE694604A800F041
:10431C00C0FE454900F0C9FE0168284600F042FF86
:10432C00684600F007FE04A800F004FE01F0F0FB64
:10433C004049054604A800F048FE0A22D9F80010AE
:10434C00684600F07BFE694604A800F0A2FE3649E0
:10435C0000F0ABFE0168284600F024FF684600F030
:10436C00E9FD04A800F0E6FD01F0D2FB3249054658
:10437C0004A800F02AFE0A223146684600F04BFEE3
:10438C00694604A800F085FE274900F08EFE0168FE
:10439C00284600F007FF684600F0CCFD04A800F0AA
:1043AC00C9FD01F0B5FB2549054604A800F00DFE3A
:1043BC000A222146684600F02EFE694604A800F049
:1043CC0068FE194900F071FE0168284600F0EAFE0B
:1043DC00684600F0AFFD04A800F0ACFD01F098FBBE
:1043EC001749044604A800F0F0FD0A223946684635
:1043FC0000F011FE694604A800F04BFE0A4900F0DB
:10440C0054FE0168204600F0E0FE684600F092FD84
:10441C0004A800F08FFD41F2883000F04BFF09B08A
:10442C00BDE8F08F33630D0026630D0029630D008A
:10443C003D630D004A630D0057630D005E630D0074
:10444C0067630D00E4E50320E8E5032010B5084B95
:10445C00084C0121197003222046022300F062F857
:10446C002046054A0549BDE8104001F0B9BE00BF21
:10447C00E0E503202CE60320DCE503208D440D0051
:10448C0010B50446C06808B100F05CFC23781BB181
:10449C00E079002101F038FE204610BD38B5044605
:1044AC00C0680D4608B100F04DFCA379062B0CBF7B
:1044BC000420032010FB05F080B2A08000F03AFC31
:1044CC00E06028B1A288002101F0B2FE658038BD01
:1044DC00A0806080FBE710B504460121C07901F093
:1044EC0013FEE079002101F020FE0123237010BDA2
:1044FC0037B5037805460C461BB1C079002101F095
:10450C0003FE2B78EC715BB1A0B20121019001F09C
:10451C00FBFD0198002103B0BDE8304001F005BE61
:10452C0003B030BD70B50025044616468371C0E952
:10453C00035505700572FFF7B1FF20463146FFF7B2
:10454C00D7FF204670BD0000C368002B00F08D81A2
:10455C002DE9F04F8379023BDBB2042B9CBFC84A98
:10456C0052F8234087B0054688BF322400F02EFA5B
:10457C002B69C01AA042F9D3C24AAB8807CA06AC51
:10458C0004E90700039CD4F800251AB9D4F8602577
:10459C00002A7CDB049CD4F8002522B9D4F86025D1
:1045AC00002AC0F25281059CD4F80025002A00F0A4
:1045BC003781B54BB5481C68EB79C1681A0104EB1F
:1045CC000316A75C7378B24C41F08071C16022680D
:1045DC0003F01F0343EA471301273A432260A988DB
:1045EC00D5F80C80D4F804909F40002944D04FF0AB
:1045FC00000E72464FF0A04118F801CB082080261F
:10460C0063689B1A462BFBD96268D1F808351CEA03
:10461C00060F43EA0703C1F808352FD063689B1ACD
:10462C00282BFBD9D1F80C35013843EA07034FEAA4
:10463C005606C1F80C35E3D1AB880EF1010E1FFA0A
:10464C008EFE7345D8D84FF4307101FB03F16368CB
:10465C009B1A462BFBD96368A3EB09098945C0F06B
:10466C00D9804FF4967000F0A9F9A988D5F80C8080
:10467C00D4F804900029BAD10A46E8E763689B1A7B
:10468C00112BCFD863689B1A112BF7D9CAE7D4F832
:10469C006425002ABFF67EAFD4F86825002ABFF641
:1046AC0079AFD4F86C25002ABFF674AF1B01043324
:1046BC001846009300F03EFB00283FF47AAFAB881D
:1046CC00002B00F0DA80EA68013B12FA83FE02F15B
:1046DC00FF3C002348F2060248F20D011CF8017F52
:1046EC0017F0800F0CBF9046884620F8138003F11A
:1046FC00010817F0400F1FFA88F80CBF93468B4641
:10470C0020F818B003F1020817F0200F1FFA88F8F0
:10471C000CBF92468A4620F818A003F1030817F044
:10472C00100F1FFA88F80CBF9146894620F8189094
:10473C0003F104091FFA89F917F0080F03F10508B2
:10474C000CBF92468A461FFA88F817F0040F20F81F
:10475C0019A00CBF9146894620F8189003F1060861
:10476C0017F0020F1FFA88F803F108060CBF9146E8
:10477C0089460733FF0720F8189001969BB275D530
:10478C00E64520F81310BDF80430A7D1591C0233AC
:10479C0089B29BB249005B00009A4FF40047475224
:1047AC0056083949C75200224FF0140CC4F804259E
:1047BC00C4F80C25C4F808C5C4F81425C4F8102591
:1047CC00C4F82005C4F82465C4F82825C4F82C25A1
:1047DC00EB790E6806EB031719017B78715C03F01B
:1047EC001F0343EA41130121C4F86035C4F80015D6
:1047FC00C4F81021A160D4F81031002BFBD0002399
:10480C004FF0FF32C4F81031C4F80035C4F86025FD
:10481C0000F098FA00F0DAF8286107B0BDE8F08FE4
:10482C00D4F86025002ABFF6C4AED4F86425002A5B
:10483C00BFF6BFAED4F86825002ABFF6BAAED4F8DE
:10484C006C25002ABFF6B5AE30E7D4F86425002AF3
:10485C00BFF6A9AED4F86825002ABFF6A4AED4F8EA
:10486C006C25002ABFF69FAE20E77047E64520F87E
:10487C001320B3B27FF432AF88E7042302218BE715
:10488C007C630D0070630D0040E60320F0ED00E04A
:10489C00001000E043888B42F0B526D9057AC2F3AC
:1048AC000743C2F30724D6B23DB16B436C436E434E
:1048BC00C3F30723C4F30724360A90F806C0C7686D
:1048CC00BCF1060F0CBF042503256943ACF1020CA7
:1048DC007D18BCF1060F1DD8DFE80CF0041C080491
:1048EC000F0404007C546B70AE70F0BDFE2B28BF1F
:1048FC00FE237B546E70AC70F7E77B546C70AE701B
:10490C00037A120E13B9D2B2EA70EEE75A43C2F32D
:10491C000722F9E77B546C70AE70E6E742EA01219E
:10492C0041EA0040704740887047000008B500F02D
:10493C0015F8014B186008BD40E6032008B5024B82
:10494C001B689B68019308BD6802030008B5024B05
:10495C001B68DB68019308BD6802030008B5024BB5
:10496C001B681B68019308BD2C02030008B5024BA1
:10497C001B689B68019308BD2C02030008B5024B11
:10498C001B68DB68019308BD2C02030008B5024BC1
:10499C001B681B69019308BD2C02030008B5024B70
:1049AC001B68DB6C019308BD2C02030008B5024B9D
:1049BC001B685B68019308BD1802030008B5024B25
:1049CC001B68DB68019308BD1802030008B5024B95
:1049DC001B681B69019308BD1802030008B5024B44
:1049EC001B685B69019308BD1802030008B5024BF4
:1049FC001B689B6D019308BD1802030008B5024BA0
:104A0C001B685B6E019308BD1802030008B5024BCE
:104A1C001B685B6C019308BD4802030008B5024B90
:104A2C001B689B6C019308BD4802030008B5024B40
:104A3C001B685B69019308BD6402030008B5024B57
:104A4C001B681B68019308BD3C02030008B5024BB0
:104A5C001B68DB68019308BD3C02030008B5024BE0
:104A6C001B681B69019308BD3C02030008B5024B8F
:104A7C001B685B69019308BD3C02030008B5024B3F
:104A8C001B689B69019308BD3C02030008B5024BEF
:104A9C001B68DB69019308BD3C02030008B5024B9F
:104AAC001B681B6A019308BD3C02030008B5024B4E
:104ABC001B689B6A019308BD3C02030008B5024BBE
:104ACC001B681B6A019308BD2802030008B5024B42
:104ADC001B685B6A019308BD2802030008B5024BF2
:104AEC001B689B6A019308BD2802030008B5024BA2
:104AFC001B68DB6A019308BD2802030008B5024B52
:104B0C001B681B6B019308BD2802030008B5024B00
:104B1C001B685B6B019308BD2802030008B5024BB0
:104B2C001B681B6C019308BD2802030008B5024BDF
:104B3C001B68DB69019308BD3002030008B5024B0A
:104B4C001B681B6A019308BD3002030008B5024BB9
:104B5C001B681B68019308BD4C02030008B5024B8F
:104B6C001B685B68019308BD4C02030008B5024B3F
:104B7C001B681B69019308BD4C02030008B5024B6E
:104B8C001B685B69019308BD4C02030008B5024B1E
:104B9C001B689B69019308BD4C02030008B5024BCE
:104BAC001B68DB69019308BD4C02030008B5024B7E
:104BBC001B681B6A019308BD4C02030008B5024B2D
:104BCC001B681B68019308BD2002030008B5024B4B
:104BDC001B685B68019308BD2002030008B5024BFB
:104BEC001B685B69019308BD2002030008B5024BEA
:104BFC001B68DB6C019308BD2002030008B5024B57
:104C0C001B685B6D019308BD2002030008B5024BC5
:104C1C001B689B6D019308BD2002030008B5034B74
:104C2C001B68D3F88830019308BD000020020300F4
:104C3C0008B5034B1B68D3F89430019308BD0000F2
:104C4C002002030008B5024B1B685B68019308BD8A
:104C5C004002030008B5024B1B689B68019308BD1A
:104C6C004002030008B5024B1B68DB68019308BDCA
:104C7C004002030008B5024B1B681B69019308BD79
:104C8C004002030008B5024B1B685B69019308BD29
:104C9C004002030008B5024B1B689B69019308BDD9
:104CAC004002030008B5024B1B68DB69019308BD89
:104CBC004002030008B5024B1B681B6A019308BD38
:104CCC004002030008B5024B1B681B6B019308BD27
:104CDC004002030008B5024B1B685B6B019308BDD7
:104CEC004002030008B5024B1B689B68019308BD8A
:104CFC004402030008B5024B1B685B69019308BDB5
:104D0C004402030008B5024B1B681B6A019308BDE3
:104D1C004402030008B5024B1B681B6B019308BDD2
:104D2C004402030008B5024B1B68DB6B019308BD02
:104D3C004402030008B5024B1B681B68019308BDB5
:104D4C001C02030008B5024B1B685B68019308BD8D
:104D5C001C02030008B5024B1B689B68019308BD3D
:104D6C001C02030008B5024B1B685B6A019308BD6B
:104D7C001C02030008B5024B1B68DB6A019308BDDB
:104D8C001C02030008B5024B1B681B6B019308BD8A
:104D9C001C02030008B5024B1B685B6C019308BD39
:104DAC001C020300002240681146FFF783BF00225B
:104DBC0040681146FFF78EBF40680022FFF782BFA4
:104DCC004068002281F00101FFF76CBF00234068AE
:104DDC001A461946FFF75EBF002340681A4619466B
:104DEC00FFF750BF002240681146FFF743BF002277
:104DFC0040681146FFF72EBF406800220221FFF7E2
:104E0C0031BF002340681A46FFF71CBF024B032238
:104E1C005A60024A1A60704744E6032098630D00FA
:104E2C0010B5044608462170FFF780FE002363602E
:104E3C00204610BD10B50446006818B1FFF782FF7C
:104E4C000023236010BD10B50446FFF7F3FF204686
:104E5C0010BD000010B5094B094C022200201A604D
:104E6C00084B2060A080A071A360FFF7AFFE204626
:104E7C00054A0649BDE8104001F0B2B958E60320D6
:104E8C004CE603200000FFFFDCE50320534E0D0031
:104E9C0010B5044601F01DFA013823182046834250
:104EAC0006D90278197800F8011B03F80129F6E7F6
:104EBC0010BD70B50C46911E2229054622D82046FD
:104ECC006DB1B5FBF2F602FB1655E9B2092D94BF94
:104EDC0030315731C9B200F8011B3546F0E70246B4
:104EEC0023443021934202D902F8011BFAE71A1A23
:104EFC00834238BF0022002383542046FFF7C8FFAB
:104F0C00204670BD0020FCE738B5031E0C46154644
:104F1C000EDAB3F1004F4FF02D0214BF5842184671
:104F2C0001230A702A461944FFF7C3FF204638BDF7
:104F3C000123F9E710B504460068FFF703FF20468C
:104F4C0010BD10B50446006808B1FFF7FBFE002346
:104F5C00C4E90133236010BD38B504460D46006822
:104F6C000131FFF7F7FE10B1C4E90005012038BD8F
:104F7C0010B50368044623B143688B4201D301206A
:104F8C0010BD2046FFF7E8FF0028F9D0A368002BDE
:104F9C00F5D122681370F2E737B50D461146019230
:104FAC000446FFF7E5FF019A28B92046FFF7C9FF31
:104FBC00204603B030BDA2602946206801F02AF9D2
:104FCC002268A3680021D154F2E7002313B5C0E98D
:104FDC00003304468360037341B10846019101F02C
:104FEC0078F9019902462046FFF7D6FF204602B019
:104FFC0010BD13B5044659B10846019101F069F989
:10500C00019902462046FFF7C7FF204602B010BDAB
:10501C00FFF797FFF9E710B504468AB00023C4E9FF
:10502C000033A3602373084601A9FFF76DFF01A9A4
:10503C002046FFF7DEFF20460AB010BD10B504462F
:10504C008AB00023C4E90033A3602373084601230C
:10505C0001A9FFF72EFF01A92046FFF7CAFF204642
:10506C000AB010BD70B505460E4609B9002070BDDA
:10507C006AB1846814442146FFF77AFF0028F5D002
:10508C002868AB683146184401F0FEF8AC6001208A
:10509C00EDE710B58A6809680446FFF7E3FF10B91D
:1050AC002046FFF74EFF204610BD13B5044629B924
:1050BC002046FFF746FF204602B010BD084601917E
:1050CC0001F007F9019902462046FFF7CBFF0028B3
:1050DC00EED0F0E710B5036804469B689847A368C8
:1050EC00013BA3602BB923682046DB68BDE8104068
:1050FC00184710BD10B50446006808B1FFF78EFCC8
:10510C00204610BD0B68036013B15A6801325A6017
:10511C00704710B50446006828B14368013B4360F2
:10512C000BB9FFF7D7FF204610BD000010B5064C99
:10513C00002320462360FFF769FC2046034A0449FC
:10514C00BDE8104001F04CB85CE60320DCE5032020
:10515C0001510D00F8B506460D468F180024BD42CE
:10516C000CD0336815F8011B9B6830469847031E1A
:10517C0001DB1C44F3E7002C08BF1C462046F8BD9D
:10518C0013B50446084659B1019101F0A2F8236801
:10519C000199DB680246204602B0BDE81040184772
:1051AC0002B010BD08B5FFF7EBFF08BD03689B68A4
:1051BC00184738B50D210546FFF7F8FF0A210446BC
:1051CC002846FFF7F3FF204438BD38B50546FFF7F6
:1051DC00D7FF04462846FFF7ECFF204438BD30B516
:1051EC008BB000238DF82430012A98BF0A2209AC19
:1051FC000D46B1FBF2F101FB125303F0FF03092B37
:10520C0094BF30333733DBB2AA4204F8013DEFD9F7
:10521C002146FFF7B5FF0BB030BD0000014B024A31
:10522C001A60704760E60320C4630D0008B50020C7
:10523C00FFF770FD28B1FFF75DFD80F00100C0B2F3
:10524C0008BD0120FCE710B50020FFF7CFFB04469A
:10525C00A0B9FFF7B3FC012810D12046FFF7D6FC0C
:10526C0060B9FFF7E3FF10B9FFF73CFDF9E7FFF773
:10527C00DDFFBDE810400020FFF7B8BB204610BD95
:10528C001FB5FFF7E0FF10220021684600F0D0FFA9
:10529C0000216846FFF7B2FB009805B05DF804FBEF
:1052AC00024B1A68024B1A60704700BF74E503206A
:1052BC0064E603200021FFF791BC10B58368044617
:1052CC0013B1032201469847204610BD10B5044681
:1052DC00FFF7F3FF204610BD13B50B460246D0E98D
:1052EC0000016C4684E8030093E8030082E80300A5
:1052FC0094E8030083E8030002B010BD0348044A9D
:10530C0004490023836000F06BBF00BF68E60320F4
:10531C00DCE50320D9520D00014B1860704700BF2B
:10532C0078E5032008B50B4B43B100F0F1FB0368A3
:10533C001B699847002801DDAFF30080064B43B191
:10534C0000F064FC03681B699847002801DDAFF38B
:10535C00008008BD000000000000000008B5FFF749
:10536C00E1FFFFF73BFB014B186008BDD4E70320BE
:10537C000248034A0349121A00F04CBF00F4032000
:10538C0004F4032060650D0007B5002300931A4652
:10539C006FF07701FFF74CFC03B05DF804FB0000E5
:1053AC0007B543880A2B08D0502B0BD1094B1B682F
:1053BC004BB103B05DF804EB1847FFF7E5FF03B002
:1053CC005DF804FB002300931A466FF07701FFF79A
:1053DC002FFCF4E77CE6032038B5124C1248134D31
:1053EC000021FFF7D7FC2368AB42114B0CBF012205
:1053FC0000221A7002D0FFF7BBFF2560FFF7D6FA28
:10540C00044600F01DFF0B4B13B12046AFF3008098
:10541C0000210848FFF786FCBDE83840064800210B
:10542C00FFF7FCBB00F4032025530D001E1C279A2C
:10543C0078E6032000000000AD530D0070470020FB
:10544C00704710B51021044600F0CFFE204610BD69
:10545C0008B5FFF7F6FF08BD30B500224FF69C7477
:10546C00026084808D888C800C68858004600A6062
:10547C0030BD10B504460068FFF764FC204610BD33
:10548C0038B5C468F4B12378022B03D104F10C00B5
:10549C00FFF7EFFF656835B12846FFF70EFF1021C7
:1054AC00284600F0A2FEA56835B12846FFF705FF97
:1054BC001021284600F099FE20461421BDE8384002
:1054CC0000F093BE38BD73B50E46044656F8043B47
:1054DC0000930D4601A83146FFF714FE019A009B7C
:1054EC006260236001A8002301930093FFF711FE73
:1054FC003046FFF70EFE2846082100F076FE2046C7
:10550C0002B070BD826810B50AB900F072FEBDE839
:10551C001040C368184708B5006800F11001FFF788
:10552C00F1FF08BD826810B50AB900F062FEBDE853
:10553C001040C368184708B5006800F11001FFF768
:10554C00F1FF08BD38B500230446036010200D465A
:10555C00FEF799FD28B10123C0E90133024B03602A
:10556C00C5602060204638BDEC630D0038B50023C3
:10557C0083608B6804460D462BB102229847EB687A
:10558C00E360AB68A360204638BD0000F0B589B07D
:10559C0004686846FFF760FF4FF00203D4E84F2F12
:1055AC00002A03D1C4E8413F0029F7D125D104F1E9
:1055BC000C0569462846FFF74FFFBFF35B8F0123AD
:1055CC006370002004F10803BFF35B8F53E8006F96
:1055DC0043E80002002AF9D1BFF35B8F6EB1FFF7ED
:1055EC0005FB78B129463046FFF78CFF3046FFF7B4
:1055FC0064FE1021304600F0F8FD6846FFF739FFD5
:10560C0009B0F0BD314602A8FFF7B0FFE068B4F96D
:10561C00105008B100F040FE06901020ADF81C5060
:10562C00FEF731FD0546E8B1002787601820FEF72C
:10563C002AFD044688B10146876002A8FFF74CFE9C
:10564C00049BA268A360059B049206A9E268E36030
:10565C0004F110000592FFF7FFFE084BEB60084BBE
:10566C002C60AB6006A8FFF704FF02A8FFF725FE2D
:10567C00002229460348FFF7C1FAB7E723550D006E
:10568C00B9570D006D5C0D002DE9F0478AB0054649
:10569C009DF848900C4617469846FFF72BFB07AE33
:1056AC00824638BB4FF62E73059005A93046ADF8EF
:1056BC001830FFF7D1FE1420FEF7E5FC044648B184
:1056CC00022303700123C0E901AA437031460C3058
:1056DC00FFF7C2FE2846214640F8044BFFF732FF85
:1056EC003046FFF7C6FE05A8FFF7C3FE28460AB0F2
:1056FC00BDE8F0870C234FF0000A1420CDE908AA6E
:10570C000793FEF7C0FC014628B1C0E901AA80F856
:10571C0000A080F801A004A80391FFF713FF224B0F
:10572C0008930820FEF7AFFC824628B1039B40F893
:10573C00043B04A9FFF7E6FC00965FFA89F34246A6
:10574C0039462046CDF824A0FFF7DCFAB8B9039B04
:10575C005B7803F0FF0293B94FF69C7305A903A87D
:10576C000592ADF81830FFF711FF05A8FFF781FE81
:10577C0005A80999FFF7A7FE06A8FFF7CAFC039B2B
:10578C00059304A906A8FFF7BDFC059B069A2B60A0
:10579C006A60002306A806930593FFF7BAFC04A8D9
:1057AC00FFF7B7FCA2E700BF7D580D00022AF8B541
:1057BC00054607D0032A18D0012A01D10B680360D3
:1057CC000020F8BD18200E68FEF75DFC044650B1B1
:1057DC003146FFF7CBFE3069B6F9147008B100F012
:1057EC005BFD2061A7822C60EAE70468002CE7D0FF
:1057FC0004F11000FFF73DFE2046FFF75EFD182177
:10580C00204600F0F2FCDBE738B5002383608B68A0
:10581C0004460D462BB102229847EB68E360AB6857
:10582C00A360204638BD022A70B5044607D0032A6F
:10583C0012D0012A01D10B680360002070BD142026
:10584C000E68FEF720FC054620B13146FFF7DCFF61
:10585C00337C2B742560F0E70468002CEDD02046D7
:10586C00FFF72BFD1421204600F0BFFCE5E70000FC
:10587C00F0B589B004460D4601A81146FFF723FE8A
:10588C00A4B124B21DB1284600F006FD054601A8BE
:10589C0003A90395ADF81040FFF778FE03A8FFF7B6
:1058AC00E8FD02A8FFF735FC09B0F0BD019D01230E
:1058BC00D5E84F2F002A03D1C5E8413F0029F7D185
:1058CC00EFD12B73BFF35B8F6B702B1DBFF35B8F13
:1058DC0053E8006F43E80042002AF9D1BFF35B8F15
:1058EC00002EDED02046FFF781F9074660B105F1A6
:1058FC000C013046FFF716FE3046FFF7DEFC102198
:10590C00304600F072FCCCE7314603A8FFF77CFF71
:10591C002B7B8DF81C301020FEF7B5FB0546D0B163
:10592C0087601420FEF7AFFB044678B18760014610
:10593C0003A8FFF7D1FC059BA268A360069B059208
:10594C00E268E3609DF81C3006922374064BEB6012
:10595C00064B2C60AB6003A8FFF7AFFC0022294676
:10596C000348FFF74BF9C7E743550D0033580D00BB
:10597C006D5C0D00704710B51821044600F035FC25
:10598C00204610BDF0B5037D062B8DB00E4600F100
:10599C0004074FF0000412D000F1080515F8011DA2
:1059AC000A223046FFF71BFCAF42044419D0002CEE
:1059BC00F4D02E213046FFF7F9FB0444EEE72F23F9
:1059CC006A4639460A208DF80040FFF72FF86846E2
:1059DC0000F07FFC33680246DB6869463046984726
:1059EC00044620460DB0F0BD10B5054B04461122FF
:1059FC0040F8043B002100F01BFC204610BD00BF0A
:105A0C0008640D000346074A10B543F8042B01F156
:105A1C00100251F8044B43F8044B9142F9D10A7827
:105A2C001A7010BD08640D0010B59DF8084044EACA
:105A3C00032343EA024242EA0161042341600375F5
:105A4C0010BD13B5CB7800938B784A780978FFF7A3
:105A5C00EBFF02B010BD41747047704708B50021D0
:105A6C00007CFFF793F840EAE07008BD08B501210F
:105A7C00007CFFF78BF840EAE07008BD08B5007CAD
:105A8C00FFF77CF820EAE07008BD08B5007CFFF752
:105A9C006DF820EAE07008BD13B50446007C019156
:105AAC00FFF76CF80028019901DC607C20B1207CA8
:105ABC00FFF774F820EAE07002B010BD007CFFF72D
:105ACC0075B810B51421044600F08FFB204610BDAC
:105ADC0010B54FF47A73044608460021C4E901134B
:105AEC00044B23600123207463741146FFF72EF8D6
:105AFC00204610BD1C640D00007C0022FFF72EB860
:105B0C0010B514220446002100F092FB204610BD73
:105B1C0010B5104C88B003A8FFF7F2FF2178BFF343
:105B2C005B8F11F0010111D120460191FEF7B1FA02
:105B3C00019958B103AA0848FFF7CAFF2046FEF79F
:105B4C00ADFA064A0649044800F04AFB024808B080
:105B5C0010BD00BF80E6032084E60320DCE50320B3
:105B6C00675A0D0070474174704708B5007CFEF70A
:105B7C009DFF20EAE07008BD08B5007CFEF76EFFC3
:105B8C0020EAE07008BD08B5007CFEF777FF40EA1C
:105B9C00E07008BD08B5007CFEF768FF40EAE070D5
:105BAC0008BD007CFEF772BF37B5457C04462DB1AD
:105BBC00207C03B0BDE83040FEF748BF007C01916B
:105BCC00FEF774FF00280199F2DC284603B030BDC3
:105BDC0010B51421044600F008FB204610BD00004F
:105BEC0010B54FF0000C0446084611464FF47A727B
:105BFC00C4E901C2044A22600122207462741A466C
:105C0C00FEF71CFF204610BD4C640D0013B50E4C66
:105C1C002178BFF35B8F11F0010112D12046019165
:105C2C00FEF737FA019960B1084A094B0948FFF7AA
:105C3C00D7FF2046FEF732FA074A0849054800F01C
:105C4C00CFFA044802B010BD98E603209CE603206E
:105C5C0020E70320A4E70320DCE50320715B0D00A3
:105C6C0010B5836804460BB900F0C3FAC3689847B3
:105C7C00A3681BB1032221462046984720461021D9
:105C8C00BDE8104000F0B1BA7047F8B506461546AD
:105C9C000C468F18BC4206D0336814F8011B9B6865
:105CAC0030469847F6E72846F8BD007C0022FEF700
:105CBC0005BF007C0021FEF709BF007C0021FEF728
:105CCC000DBF007C0021FEF711BF007C0021FEF708
:105CDC0015BF10B51421044600F087FA204610BDFC
:105CEC0010B54FF47A73044608460021C4E9011339
:105CFC00034B236020741146FEF710FF204610BDA5
:105D0C007C640D00002240681146FEF7B3BF0022F0
:105D1C0040681146FEF7CEBF002240681146FEF7E0
:105D2C00D9BF40680022FEF7CDBF4068002281F049
:105D3C000101FEF7B7BF002340681A461946FEF76B
:105D4C00A9BF002340681A461946FEF79BBF0022E4
:105D5C0040681146FEF77EBF406800220221FEF724
:105D6C0081BF002340681A46FEF76CBF024B042229
:105D7C005A60024A1A607047B8E70320A4640D0009
:105D8C00002340681A46FEF75DBF406800220221DE
:105D9C00FEF768BF002240681146FEF75BBF002289
:105DAC0040681146FEF766BF002340681A46194644
:105DBC00FEF768BF002340681A461946FEF76ABF13
:105DCC004068002281F00101FEF76CBF40680022A0
:105DDC00FEF778BF002240681146FEF77BBF002219
:105DEC0040681146FEF766BF2DE9F043002495B0DC
:105DFC0016460D460746FFF7F7FD214618220EA85A
:105E0C00009400F015FA4023CDE90C3421466B4682
:105E1C000CAA3046FEF79AFD0446002846D10246ED
:105E2C0001216868FEF726FF022180462246686839
:105E3C00FEF720FF009E81462146002E36D0002919
:105E4C0034D17368022B03D00A2B0BD0F669F4E71C
:105E5C00B8F1000F04D0716938460431FFF7F1FD39
:105E6C004146F3E7B9F1000F01D14946EEE77469F9
:105E7C00102201A800F0DCF906238DF8143001ADD6
:105E8C0004F108031834186859682A4603C2083309
:105E9C00A3421546F7D101A906A807ADFFF7B2FD3D
:105EAC000FCD3C1D0FC42B682370DEE70098FEF766
:105EBC0045FD384615B0BDE8F0830000024B034A9F
:105ECC001A6000225A607047C0E70320D8640D00A6
:105EDC00704710B51421044600F087F9204610BD18
:105EEC0038B51546D0E903239342044607D2D21A9B
:105EFC008068AA4228BF2A46184400F08BF9226910
:105F0C002A44226138BD0EB417B505AB044653F8CC
:105F1C00042BE1680193036980688B4238BFC91A6E
:105F2C00184428BF0021019BFEF71CFF236918446D
:105F3C00206103B0BDE8104003B0704707B503689B
:105F4C008DF807109B6801220DF10701984703B0EB
:105F5C005DF804FB10B57D210446FFF7EFFF01232C
:105F6C002371204610BD08B50379012B02D0022BFA
:105F7C0004D008BD2C21FFF7E1FFFAE73A21FAE73C
:105F8C0010B50446FFF7EFFF20467B21FFF7D6FF45
:105F9C0000232371204610BD13B504460191FFF771
:105FAC00E2FF2368019ADB680349204698470123E6
:105FBC002046237102B010BD04650D002DE9F0419F
:105FCC000D4617462221DFF8A08004462F44FFF728
:105FDC00B5FF2946BD422A4638D015F8016B222E52
:105FEC0003D05C2E01D01F2EF4D82368521A9B6864
:105FFC00204698475C212046FFF7A0FF0D2E0AD8BB
:10600C00072E1CD9A6F10803052B18D8DFE803F0DE
:10601C000D0F11171315222E01D05C2E0FD1314606
:10602C002046FFF78BFF2946D4E76221F8E774215D
:10603C00F6E76E21F4E76621F2E77221F0E72368B8
:10604C003246DB68414620469847ECE78D4204D047
:10605C0023686A1A9B682046984722212046FFF73E
:10606C006DFFBDE8F08100BF07650D0013B5044658
:10607C00CDE90021FFF777FF2046DDE90021FFF78E
:10608C009DFF02232046237102B010BD232813B5B7
:10609C0002D9002002B010BDA0F10B03022B1AD8BC
:1060AC00174C2178BFF35B8F11F001010BD1204607
:1060BC000191FDF7EEFF019928B11248FEF7B0FEF1
:1060CC002046FDF7EBFF0F4B1878FEF737FD002845
:1060DC00DFD10120DEE7012809D800F059F80021B2
:1060EC00007CFEF713FD80F00100C0B2D2E7093846
:1060FC000128EED8FFF78AFD007CFEF7CFFCF2E713
:10610C00C8E70320CCE70320232838B504460D4606
:10611C000AD8FF2908D0FFF7B9FF28B12946204635
:10612C00BDE83840FEF722BC38BD38B504460D46F4
:10613C00FEF724FCFF2810D0062804D84D2323FAA0
:10614C0000F0C30709D42046FFF7A0FF28B1294669
:10615C002046BDE83840FEF719BC38BDFEF71EBC22
:10616C0038B5002320254380142304460380856022
:10617C0005610649284600F03AF804496060284653
:10618C0000F035F8E060204638BD00BF28650D00F2
:10619C0030B50F4D2978BFF35B8F11F0010487B038
:1061AC0013D12846FDF775FF78B101A8FFF7D8FF8A
:1061BC0001AA21460748FFF793FD2846FDF76EFF1D
:1061CC00054A0649034800F00BF8024807B030BDF9
:1061DC00D8E70320DCE70320DCE50320955C0D0009
:1061EC000B460146184600F007B8FDF750BFFDF707
:1061FC004CBF08B5FEF7BEFD10B5054C13462CB1CF
:10620C000A4601460220AFF3008010BD2046FCE791
:10621C00000000000A44914200F1FF3300D17047A6
:10622C0010B511F8014B03F8014F9142F9D110BD93
:10623C0002440346934200D1704703F8011BF9E76F
:10624C0038B50D4B1D68AB6B04467BB91820FEF7B7
:10625C0071FD0A4A0A4BA863C0E90023094B83600D
:10626C000B23838101220023C0E90423AB6B0022A2
:10627C001C615A6138BD00BF78E503200E33CDABED
:10628C0034126DE6ECDE0500034611F8012B03F821
:10629C00012B002AF9D17047024B0146186800F017
:1062AC0003B800BF78E5032037B5044608460D4611
:1062BC0000F00FF8421C114620460192FEF762FDD9
:1062CC00044618B1019A2946FFF7A4FF204603B0F3
:1062DC0030BD034613F8012B002AFBD1181A0138E4
:1062EC00704700001D400D0059400D0081400D000D
:1062FC0085400D000000000076616C7565007469C6
:10630C006D657374616D7000636F325F636F6E6384
:10631C00656E74726174696F6E003B2000636F72FE
:10632C0072656374656420434F322070706D3A203F
:10633C00004455524154494F4E5F313A2000445568
:10634C00524154494F4E5F323A2000484947483A2F
:10635C002000484947485F323A20004C4F573A20BA
:10636C000000000000C0014000100240002002406C
:10637C002C01000018000000F40100002C010000AA
:10638C005000000000000000000000000F4E0D0047
:10639C00054E0D00FB4D0D00F14D0D00E54D0D00B2
:1063AC00D94D0D00CD4D0D00C54D0D00BB4D0D0053
:1063BC00B14D0D00F55D0D006170700025592D2556
:1063CC006D2D25645425483A254D3A2553257A00E0
:1063DC0061736374696D65000000000000000000CB
:1063EC0049540D004F540D008D540D005D540D009B
:1063FC004B540D00000000000000000091590D00EE
:10640C0081590D0083590D000000000000000000B0
:10641C00675A0D00CF5A0D00A55A0D0061510D00A1
:10642C00975A0D00695A0D00795A0D00C95A0D0082
:10643C00895A0D00635A0D00000000000000000096
:10644C00715B0D00DD5B0D00B55B0D0061510D0046
:10645C00855B0D00A15B0D00935B0D00AF5B0D0028
:10646C00735B0D00775B0D00000000000000000066
:10647C00955C0D00DF5C0D00B75C0D00975C0D00AA
:10648C00BF5C0D00C75C0D00CF5C0D00D75C0D0030
:10649C0000000000000000006F5D0D00655D0D0048
:1064AC005B5D0D00115D0D004F5D0D00435D0D003A
:1064BC00375D0D002F5D0D00255D0D001B5D0D0082
:1064CC00F55D0D0000000000000000008D5D0D006A
:1064DC00975D0D00A15D0D00AB5D0D00B55D0D0070
:1064EC00C15D0D00CD5D0D00D95D0D00E15D0D00B0
:1064FC00EB5D0D00F55D0D002564007525303478DD
:10650C00000000000000000000000000DD5E0D0037
:10651C00DF5E0D00ED5E0D00135F0D00000000004E
:10652C0059440D0039490D00194E0D00614E0D00F6
:10653C0039510D0029520D00AD520D0009530D00BB
:10654C00795D0D00C95E0D00000000000000000028
:04655C00000000003B
:046560000000000037
:10656400DC630D007CE50320000000000000000057
:106574000000000000000000000000000000000017
:106584000000000000000000000000000000000007
:1065940000000000000000000000000000000000F7
:1065A40000000000000000000000000000000000E7
:1065B40000000000000000000000000000000000D7
:0865C4000000000000000000CF
:1065CC00FFFFFFFF00000102030405060708090A8C
:1065DC000B0C0D0E0F101112131415161718191A87
:0865EC001B1C1D1E1F202800CE
:0465F400785634128F
:04000003D000401CCD
:00000001FF
