:02000004080AE8
:1000000000000A08C4130A080000060006000501E3
:080010000402DB070000000000
:04001800AC110A0815
:10001C0009480A4908B5884205D0094A824202D0EB
:10002C00121A01F073F80748074A0021121A01F05E
:10003C007BF8064808BD00BF0000002034130A08F6
:10004C0068000020680000204001002040010020D2
:10005C0070B500F0ADFC0025054E064CA41BA408A1
:10006C00A54200D170BD56F8043B98470135F7E71F
:10007C000C130A0828130A0800F015B808B500F08C
:10008C001FF8BDE8084000F055BC00F037BA00F08E
:10009C0035BA00F03BBA0078B0FA80F040097047EE
:1000AC0001230370704708B50021032000F0AAFF5C
:1000BC0000F070FDBDE808404FF4E13100F05EBD8A
:1000CC002DE9F041012188B0032000F0ACFF4FF482
:1000DC007A77B0FBF7F500F0B3F801210446032062
:1000EC0000F0A1FF064600F0ABF8B6FBF7F6001BDC
:1000FC00841B41F28836AF1E7E432B19043B96FBC2
:10010C00F3F600F047FD3D49804604A800F0ECFAF8
:10011C000A2207EB87016846394F00F009FB694654
:10012C0004A800F02FFB394600F038FB016840466C
:10013C0000F06EFB684600F08DFA04A800F08AFA15
:10014C0000F028FD2F49804604A800F0CDFA0A22C1
:10015C003146684600F0ECFA694604A800F012FB40
:10016C00394600F01BFB0168404600F051FB684625
:10017C0000F070FA04A800F06DFA00F00BFD2249B3
:10018C00064604A800F0B0FA0A222946684600F098
:10019C00CFFA694604A800F0F5FA394600F0FEFAE9
:1001AC000168304600F034FB684600F053FA04A8AE
:1001BC0000F050FA00F0EEFC1449054604A800F0DB
:1001CC0093FA0A222146684600F0B2FA694604A85E
:1001DC0000F0D8FA394600F0E1FA0168284600F040
:1001EC0017FB684600F036FA04A800F033FA40F624
:1001FC00C41000F049FB08B0BDE8F081CD110A082D
:10020C00C0110A08C3110A08D7110A08DE110A081E
:10021C0008B5024B1B689B68019308BDB00106082A
:10022C0008B5024B1B68DB6C019308BDB0010608D6
:10023C0008B5024B1B685B68019308BD9C0106085E
:10024C0008B5024B1B685B69019308BD9C0106084D
:10025C0008B5024B1B685B6C019308BDD001060806
:10026C0008B5024B1B689B6C019308BDD0010608B6
:10027C0008B5024B1B689B69019308BDC4010608B5
:10028C0008B5024B1B685B6A019308BDC4010608E4
:10029C0008B5024B1B689B6A019308BDC401060894
:1002AC0008B5024B1B68DB6A019308BDC401060844
:1002BC0008B5024B1B681B6B019308BDC4010608F3
:1002CC0008B5024B1B685B6B019308BDC4010608A3
:1002DC0008B5024B1B689B6B019308BDC401060853
:1002EC0008B5024B1B681B6C019308BDC4010608C2
:1002FC0008B5024B1B681B6E019308BDAC010608C8
:10030C0008B5024B1B685B6E019308BDAC01060877
:10031C0008B5024B1B689B6E019308BDAC01060827
:10032C0008B5024B1B68DB6E019308BDAC010608D7
:10033C0008B5024B1B681B6F019308BDAC01060886
:10034C0008B5024B1B685B6F019308BDAC01060836
:10035C0008B5034B1B68D3F88030019308BD00002F
:10036C00AC01060808B5024B1B68DB69019308BD9C
:10037C00B401060808B5024B1B681B6A019308BD43
:10038C00B401060808B5024B1B681B68019308BD35
:10039C00D801060808B5024B1B685B68019308BDC1
:1003AC00D801060808B5024B1B681B69019308BDF0
:1003BC00D801060808B5024B1B685B69019308BDA0
:1003CC00D801060808B5024B1B689B69019308BD50
:1003DC00D801060808B5024B1B68DB69019308BD00
:1003EC00D801060808B5024B1B681B6A019308BDAF
:1003FC00D801060808B5024B1B689B6C019308BD1D
:10040C00C001060808B5024B1B685B68019308BD68
:10041C00A401060808B5024B1B685B69019308BD73
:10042C00A401060808B5034B1B68D3F89030019360
:10043C0008BD0000A401060808B5034B1B68D3F8DF
:10044C009C30019308BD0000A401060808B5024BBE
:10045C001B685B68019308BDC801060808B5024B10
:10046C001B689B68019308BDC801060808B5024BC0
:10047C001B68DB68019308BDC801060808B5024B70
:10048C001B681B69019308BDC801060808B5024B1F
:10049C001B685B69019308BDC801060808B5024BCF
:1004AC001B689B69019308BDC801060808B5024B7F
:1004BC001B68DB69019308BDC801060808B5024B2F
:1004CC001B681B6A019308BDC801060808B5024BDE
:1004DC001B681B6B019308BDC801060808B5024BCD
:1004EC001B685B6B019308BDC801060808B5024B7D
:1004FC001B68DB6B019308BDCC01060808B5024BE9
:10050C001B681B68019308BDA001060808B5024BC7
:10051C001B685B68019308BDA001060808B5024B77
:10052C001B689B68019308BDA001060808B5024B27
:10053C001B685B6C019308BDA001060870B5002612
:10054C0004460D4640F8086FFFF782FE28462570DA
:10055C00FFF708FF2046666070BD10B504460068C2
:10056C0018B1FFF7D3FF0023236010BD10B504466C
:10057C00FFF7F3FF204610BD0222002010B5084BF8
:10058C00084C1A60084B2060A080A071A360FFF794
:10059C0039FF2046BDE81040044A054900F09EBDD5
:1005AC00780000206C0000200000FFFF6800002095
:1005BC0079050A0810B5044600F0EAFD431E2046F2
:1005CC002344834206D90278197800F8011B03F8FA
:1005DC000129F6E710BD70B50C46911E222922D8D0
:1005EC00254668B1B0FBF2F602FB1600C1B2092831
:1005FC0094BF30315731C9B2304605F8011BF0E7D2
:10060C002A4630212344934202D902F8011BFAE70F
:10061C005A1BAB4238BF002200232046AB54FFF7D5
:10062C00C9FF204670BD0020FCE738B5031E0C4600
:10063C0015460DDA2D22B3F1004F0CBF1846584267
:10064C0001230A702A461944FFF7C5FF204638BD1E
:10065C000123F9E710B504460068FFF757FF204661
:10066C0010BD10B50446006808B1FFF74FFF00231A
:10067C00C4E90133236010BD38B504460D4600684B
:10068C000131FFF74BFF10B1C4E90005012038BD63
:10069C0010B50368044623B143688B4201D3012093
:1006AC0010BD2046FFF7E8FF0028F9D0A368002B07
:1006BC00F5D122681370F2E770B50E461146044668
:1006CC001546FFF7E5FF20B92046FFF7CAFF204685
:1006DC0070BD2A4631462068A56000F017FD002148
:1006EC002268A368D154F2E738B5002304460D46BE
:1006FC00C0E900338360037339B1084600F048FD4C
:10070C00294602462046FFF7D7FF204638BD38B5AC
:10071C0005460C4649B1084600F03AFD2146024612
:10072C002846FFF7C9FF284638BDFFF79AFFFAE7BE
:10073C0010B5002304468AB0C4E90033A3602373C8
:10074C00084601A9FFF771FF204601A9FFF7DFFF5B
:10075C0020460AB010BD70B505460E4609B90020FA
:10076C0070BD6AB1846814442146FFF791FF0028DC
:10077C00F5D02868AB683146184400F001FDAC6038
:10078C000120EDE710B58A6809680446FFF7E3FF1E
:10079C0010B92046FFF765FF204610BD38B504465A
:1007AC000D4621B92046FFF75CFF204638BD0846B0
:1007BC0000F0EEFC294602462046FFF7CCFF00284D
:1007CC00F0D0F2E7F8B506460D4600248F18BD426E
:1007DC000CD0336830469B6815F8011B9847031EF4
:1007EC0001DB1C44F3E7002C08BF1C462046F8BD77
:1007FC0070B505460C46084649B100F0C9FC2B689B
:10080C00024621462846BDE87040DB68184770BD9B
:10081C0008B5FFF7EDFF08BD03689B681847002378
:10082C00012A98BF0A2230B58BB00C468DF82430C3
:10083C0009A92546B4FBF2F404FB1253DBB2092BD5
:10084C0094BF30333733DBB2AA4201F8013DF0D903
:10085C00FFF7CEFF0BB030BD002340681A46194697
:10086C00FFF714BE014B024A1A6070477C0000204F
:10087C00E4110A08024B1A68024B1A60704700BF59
:10088C0000000020800000200021FFF7C3BD10B540
:10089C008368044613B1032201469847204610BDD5
:1008AC0010B50446FFF7F3FF204610BD00230348A4
:1008BC00034A0449836000F011BC00BF840000208F
:1008CC0068000020AD080A08014B1860704700BF93
:1008DC000400002008B5134B43B100F05BF903682A
:1008EC001B699847002801DDAFF300800E4B43B124
:1008FC0000F0FAF903681B699847002801DDAFF393
:10090C0000800A4B0BB1AFF30080094B43B100F0F0
:10091C0071F903681B699847002801DDAFF300806B
:10092C0008BD00BF00000000000000000000000037
:10093C000000000008B5FFF7CDFFFFF781FC014B6D
:10094C00186008BD0C0100200248034A0349121A22
:10095C0000F0DCBB004002400440024030130A08A7
:10096C00002307B51A466FF077010093FFF764FD7B
:10097C0003B05DF804FB000007B543880A2B08D0D0
:10098C00502B0BD1094B1B684BB103B05DF804EB3A
:10099C001847FFF7E5FF03B05DF804FB00231A4688
:1009AC006FF077010093FFF747FDF4E79800002004
:1009BC0038B5124C00211248FFF7B8FD114D2368D1
:1009CC00AB420CBF012200220F4B1A7002D0FFF772
:1009DC00BBFF2560FFF72CFC044600F0ADFB0B4B76
:1009EC0013B12046AFF3008000210848FFF77EFDCD
:1009FC00BDE8384000210648FFF714BD0040024016
:100A0C00D5080A081E1C279A94000020000000003C
:100A1C0085090A08704710B50446182100F063FBDD
:100A2C00204610BDF8B50E46002400F10807051D40
:100A3C0017F8011D0A223046FFF7F1FEAF420444BD
:100A4C0001D12046F8BD002CF2D02E213046FFF704
:100A5C00E3FE0444ECE7000010B50446044B1122FD
:100A6C00002140F8043B00F05FFB204610BD00BFA6
:100A7C000C120A080346074A10B543F8042B01F17F
:100A8C00100251F8044B914243F8044BF9D10A7807
:100A9C001A7010BD0C120A08024AC0E90021042287
:100AAC00027570470C120A0810B59DF8084044EA0C
:100ABC000324042344EA024444EA016444600375B9
:100ACC0010BD000037B5044D05609DF81850009519
:100ADC00FFF7EAFF03B030BD0C120A0841747047EF
:100AEC00704708B50021007CFFF76CFC40EAE07011
:100AFC0008BD08B50121007CFFF764FC40EAE070FA
:100B0C0008BD08B5007CFFF755FC20EAE07008BD75
:100B1C0008B5007CFFF746FC20EAE07008BD38B54C
:100B2C000446007C0D46FFF745FC002801DC607C88
:100B3C0028B12946207CFFF74DFC20EAE07038BD37
:100B4C00007CFFF74FBC10B50446142100F0CBFA23
:100B5C00204610BD10B54FF47A73044608460021A8
:100B6C00C4E90113044B2074236001231146637400
:100B7C00FFF708FC204610BD20120A080022007C5A
:100B8C00FFF708BC10B504461422002100F0CCFA83
:100B9C00204610BD30B50F4D87B001A8FFF7F2FF0E
:100BAC002978BFF35B8F11F0010410D12846FFF7B1
:100BBC0072FA60B1214601AA0748FFF7CBFF28461D
:100BCC00FFF76EFA054A0649034800F087FA024817
:100BDC0007B030BD9C000020A4000020680000205D
:100BEC00ED0A0A0810B504461422002100F09CFA04
:100BFC00204610BD10B50F4C86B001A8FFF7F2FFD0
:100C0C002378BFF35B8FDB0710D42046FFF743FA42
:100C1C0060B1012101AA0848FFF79CFF2046FFF7AD
:100C2C003FFA064A0649044800F058FA024806B052
:100C3C0010BD00BFA0000020B800002068000020FC
:100C4C00ED0A0A0870474174704708B5007CFFF73D
:100C5C0047FB20EAE07008BD08B5007CFFF718FBE5
:100C6C0020EAE07008BD08B5007CFFF721FB40EAE4
:100C7C00E07008BD08B5007CFFF712FB40EAE0709D
:100C8C0008BD007CFFF71CBB70B5467C04460D46C6
:100C9C002EB12946207CBDE87040FFF7F1BA007CEC
:100CAC00FFF71EFB0028F4DC304670BD10B504467F
:100CBC00142100F018FA204610BD00004FF0000C73
:100CCC0010B50446084611464FF47A72C4E901C2C5
:100CDC00044A20742260012262741A46FFF7C8FA93
:100CEC00204610BD50120A08F8B51A4C26684EB9A9
:100CFC008420FFF7CAF9054618B18422314600F06A
:100D0C0013FA2560144D2F684FB98420FFF7BDF9F5
:100D1C00064618B18422394600F006FA2E600F4FB1
:100D2C003978BFF35B8F11F0010611D13846FFF70C
:100D3C00B2F968B1314622682B680948FFF7BEFF4B
:100D4C003846FFF7ADF9074A0749054800F0C6F9E0
:100D5C000348F8BDD0000020D4000020CC000020B7
:100D6C00D800002068000020510C0A087047F8B524
:100D7C00064615460C468F18BC4206D033683046E2
:100D8C009B6814F8011B9847F6E72846F8BD00222B
:100D9C00007CFFF7ADBA0021007CFFF7B1BA00214F
:100DAC00007CFFF7B5BA0021007CFFF7B9BA00212F
:100DBC00007CFFF7BDBA10B50446142100F093F97E
:100DCC00204610BD10B54FF47A7304460846002136
:100DDC00C4E90113034B114623602074FFF7B8FAE2
:100DEC00204610BD80120A08002240681146FFF709
:100DFC0045BBF0B5154689B011220E4604460021BC
:100E0C0003A800F091F9284600F0C2F9002781B23E
:100E1C0073682846009703AAFFF7ECFA30B13946FD
:100E2C002046FFF739FE204609B0F0BD204603A945
:100E3C00FFF720FEF7E7002240681146FFF73EBBA4
:100E4C00002240681146FFF749BB00224068FFF7BB
:100E5C003DBB0022406881F00101FFF727BB002356
:100E6C0040681A461946FFF719BB00224068114624
:100E7C00FFF7F4BA002202214068FFF7F7BA00230B
:100E8C0040681A46FFF7E2BA0422024B5A60024A43
:100E9C001A607047EC000020A8120A080023406872
:100EAC001A46FFF7D3BA002202214068FFF7DEBAD8
:100EBC00002240681146FFF7D1BA00224068114663
:100ECC00FFF7DCBA002340681A461946FFF7DEBA72
:100EDC00002340681A461946FFF7E0BA0022406822
:100EEC0081F00101FFF7E2BA00224068FFF7EEBA89
:100EFC00002240681146FFF7F1BA00224068114603
:100F0C00FFF7DCBA70B515468EB0044608A8FFF79B
:100F1C00A3FD1122002103A800F006F900262846A3
:100F2C0000F036F90A4B009681B25B68284603AA9A
:100F3C00FFF760FA30B131462046FFF7ADFD204691
:100F4C000EB070BD204603A9FFF794FDF7E700BF74
:100F5C00EC000020024B034A1A6000225A607047D2
:100F6C00F4000020DC120A0810B50446806808B1B1
:100F7C00FFF776F9204610BD172870B5044601D945
:100F8C00002070BDA0F10D03022B0BD9012826D82F
:100F9C0000F07CF80021007CFFF7D2F980F0010012
:100FAC00C0B2EEE7134E3178BFF35B8F11F0010541
:100FBC000FD13046FFF76FF858B129460E48FFF7AE
:100FCC00BDFA3046FFF76CF80C4A0D490A4800F0A0
:100FDC0085F8094B1878FFF7CDF90028D0D1123CD1
:100FEC00012C05D8FFF780FE007CFFF771F9D5E7DF
:100FFC000120C6E7FC000020000100206800002052
:10100C00750F0A08172838B504460D460AD8FF296B
:10101C0008D0FFF7B1FF28B129462046BDE838407B
:10102C00FFF7F6B838BDFFF7FBB80000002313B587
:10103C00074C1A46194620460093FFF743FD2046FD
:10104C00044A054902B0BDE8104000F047B800BFA3
:10105C001001002068000020210A0A08002370B546
:10106C00202543801423084E0446038031468560B6
:10107C000561284600F039F831466060284600F0DA
:10108C0034F8E060204670BD08130A0830B50F4DE7
:10109C0087B02978BFF35B8F11F0010413D1284678
:1010AC00FEF7F9FF78B101A8FFF7D8FF214601AA96
:1010BC000748FFF787FE2846FEF7F2FF054A064968
:1010CC00034800F00BF8024807B030BD280100209F
:1010DC002C01002068000020790D0A080B460146FF
:1010EC00184600F005B8FEF7D4BFFEF7D0BF0000DD
:1010FC0010B504460448134620B10A460220214686
:10110C00AFF3008010BD00BF000000000A44914204
:10111C0000F1FF3300D1704710B511F8014B91422B
:10112C0003F8014FF9D110BD03460244934200D19C
:10113C00704703F8011BF9E738B50D4B04461D68E1
:10114C00AB6B7BB91820FFF7D9F90A4A0A4BA86395
:10115C00C0E90023094B012283600B238381002308
:10116C00C0E904230022AB6B1C615A6138BD00BF7F
:10117C00040000200E33CDAB34126DE6ECDE05001E
:10118C00034611F8012B03F8012B002AF9D1704703
:10119C00034613F8012B002AFBD1181A01387047AB
:1011AC001D000A085D000A0885000A0889000A0863
:1011BC00000000003B2000636F727265637465640D
:1011CC0020434F322070706D3A2000484947483A0E
:1011DC0020004C4F573A20006170700025592D2586
:1011EC006D2D25645425483A254D3A2553257A0012
:1011FC0061736374696D65000000000000000000FD
:10120C00310A0A08210A0A08230A0A080000000009
:10121C0000000000ED0A0A08530B0A082B0B0A0801
:10122C00D1070A081D0B0A08EF0A0A08FF0A0A0868
:10123C004D0B0A080F0B0A08E90A0A080000000007
:10124C0000000000510C0A08B90C0A08950C0A0899
:10125C00D1070A08650C0A08810C0A08730C0A08E5
:10126C008F0C0A08530C0A08570C0A0800000000DF
:10127C0000000000790D0A08C30D0A089B0D0A082E
:10128C007B0D0A08A30D0A08AB0D0A08B30D0A085A
:10129C00BB0D0A0800000000000000008B0E0A08BD
:1012AC00810E0A08770E0A08F50D0A0865080A0867
:1012BC006B0E0A085F0E0A08570E0A084D0E0A0834
:1012CC00430E0A08FF0D0A08000000000000000091
:1012DC00A90E0A08B30E0A08BD0E0A08C70E0A08A2
:1012EC00D10E0A08DD0E0A08E90E0A08F50E0A08E6
:1012FC00FD0E0A08070F0A08110F0A08000000006B
:10130C0085050A0871080A0881080A08B9080A083C
:10131C00950E0A08610F0A0839100A08000000002F
:04132C0000000000BD
:0413300000000000B9
:10133400FC110A0808000020000000000000000062
:101344000000000000000000000000000000000099
:101354000000000000000000000000000000000089
:101364000000000000000000000000000000000079
:101374000000000000000000000000000000000069
:101384000000000000000000000000000000000059
:08139400000000000000000051
:10139C00FFFFFFFF00000102030405060708090A0E
:1013AC000B0C0D0E0F101112131415161718191A09
:0813BC001B1C1D1E1F20280050
:0413C4007856341211
:04000005080A001CC9
:00000001FF
